{
  "contractName": "CryptoRoulette",
  "abi": [
    {
      "inputs": [],
      "payable": true,
      "stateMutability": "payable",
      "type": "constructor",
      "signature": "constructor"
    },
    {
      "constant": true,
      "inputs": [],
      "name": "getContractOwner",
      "outputs": [
        {
          "name": "",
          "type": "address"
        }
      ],
      "payable": false,
      "stateMutability": "view",
      "type": "function",
      "signature": "0x442890d5"
    },
    {
      "constant": true,
      "inputs": [],
      "name": "getSpinResults",
      "outputs": [
        {
          "name": "",
          "type": "uint256[]"
        }
      ],
      "payable": false,
      "stateMutability": "view",
      "type": "function",
      "signature": "0x47fd50bb"
    },
    {
      "constant": true,
      "inputs": [],
      "name": "getLastSpins",
      "outputs": [
        {
          "components": [
            {
              "name": "time",
              "type": "uint256"
            },
            {
              "name": "better",
              "type": "address"
            },
            {
              "name": "selectedItemID",
              "type": "uint256[]"
            },
            {
              "name": "totalFundsPlaced",
              "type": "uint256"
            },
            {
              "name": "selectedNumber",
              "type": "uint256"
            },
            {
              "name": "isWinningSpin",
              "type": "bool"
            }
          ],
          "name": "",
          "type": "tuple[]"
        }
      ],
      "payable": false,
      "stateMutability": "view",
      "type": "function",
      "signature": "0x8eb1807d"
    },
    {
      "constant": false,
      "inputs": [
        {
          "name": "betIDs",
          "type": "uint256[]"
        },
        {
          "name": "bets",
          "type": "uint256[]"
        }
      ],
      "name": "placeBet",
      "outputs": [
        {
          "components": [
            {
              "name": "time",
              "type": "uint256"
            },
            {
              "name": "better",
              "type": "address"
            },
            {
              "name": "selectedItemID",
              "type": "uint256[]"
            },
            {
              "name": "totalFundsPlaced",
              "type": "uint256"
            },
            {
              "name": "selectedNumber",
              "type": "uint256"
            },
            {
              "name": "isWinningSpin",
              "type": "bool"
            }
          ],
          "name": "",
          "type": "tuple"
        }
      ],
      "payable": true,
      "stateMutability": "payable",
      "type": "function",
      "signature": "0xbdd60e92"
    },
    {
      "constant": false,
      "inputs": [],
      "name": "wheelSpin",
      "outputs": [
        {
          "name": "",
          "type": "uint256"
        }
      ],
      "payable": false,
      "stateMutability": "nonpayable",
      "type": "function",
      "signature": "0xef227ec2"
    },
    {
      "constant": true,
      "inputs": [
        {
          "name": "arrayToSum",
          "type": "uint256[]"
        }
      ],
      "name": "sumArray",
      "outputs": [
        {
          "name": "_sum",
          "type": "uint256"
        }
      ],
      "payable": false,
      "stateMutability": "pure",
      "type": "function",
      "signature": "0x1e2aea06"
    },
    {
      "constant": true,
      "inputs": [],
      "name": "getBalance",
      "outputs": [
        {
          "name": "",
          "type": "uint256"
        }
      ],
      "payable": false,
      "stateMutability": "view",
      "type": "function",
      "signature": "0x12065fe0"
    }
  ],
  "bytecode": "0x6080604052336000806101000a81548173ffffffffffffffffffffffffffffffffffffffff021916908373ffffffffffffffffffffffffffffffffffffffff160217905550611225806100536000396000f3fe608060405260043610610083576000357c0100000000000000000000000000000000000000000000000000000000900463ffffffff16806312065fe0146100885780631e2aea06146100b3578063442890d5146100f057806347fd50bb1461011b5780638eb1807d14610146578063bdd60e9214610171578063ef227ec2146101a1575b600080fd5b34801561009457600080fd5b5061009d6101cc565b6040516100aa91906110ba565b60405180910390f35b3480156100bf57600080fd5b506100da60048036036100d59190810190610cd2565b61027c565b6040516100e791906110ba565b60405180910390f35b3480156100fc57600080fd5b506101056102bf565b6040516101129190611019565b60405180910390f35b34801561012757600080fd5b506101306102e8565b60405161013d9190611056565b60405180910390f35b34801561015257600080fd5b5061015b610340565b6040516101689190611034565b60405180910390f35b61018b60048036036101869190810190610d13565b610487565b6040516101989190611098565b60405180910390f35b3480156101ad57600080fd5b506101b6610637565b6040516101c391906110ba565b60405180910390f35b60008060009054906101000a900473ffffffffffffffffffffffffffffffffffffffff1673ffffffffffffffffffffffffffffffffffffffff163373ffffffffffffffffffffffffffffffffffffffff1614151561025f576040517f08c379a000000000000000000000000000000000000000000000000000000000815260040161025690611078565b60405180910390fd5b3073ffffffffffffffffffffffffffffffffffffffff1631905090565b600080905060008090505b82518110156102b957828181518110151561029e57fe5b90602001906020020151820191508080600101915050610287565b50919050565b60008060009054906101000a900473ffffffffffffffffffffffffffffffffffffffff16905090565b6060600180548060200260200160405190810160405280929190818152602001828054801561033657602002820191906000526020600020905b815481526020019060010190808311610322575b5050505050905090565b60606002805480602002602001604051908101604052809291908181526020016000905b8282101561047e578382906000526020600020906006020160c06040519081016040529081600082015481526020016001820160009054906101000a900473ffffffffffffffffffffffffffffffffffffffff1673ffffffffffffffffffffffffffffffffffffffff1673ffffffffffffffffffffffffffffffffffffffff1681526020016002820180548060200260200160405190810160405280929190818152602001828054801561043757602002820191906000526020600020905b815481526020019060010190808311610423575b5050505050815260200160038201548152602001600482015481526020016005820160009054906101000a900460ff16151515158152505081526020019060010190610364565b50505050905090565b61048f610b78565b6000610499610637565b905060006104a88286866106bf565b90506000811415156104fc573373ffffffffffffffffffffffffffffffffffffffff166108fc829081150290604051600060405180830381858888f193505050501580156104fa573d6000803e3d6000fd5b505b610504610b78565b60c0604051908101604052804281526020013373ffffffffffffffffffffffffffffffffffffffff1681526020018781526020016105418761027c565b8152602001848152602001600084141515158152509050600281908060018154018082558091505090600182039060005260206000209060060201600090919290919091506000820151816000015560208201518160010160006101000a81548173ffffffffffffffffffffffffffffffffffffffff021916908373ffffffffffffffffffffffffffffffffffffffff16021790555060408201518160020190805190602001906105f3929190610bc7565b50606082015181600301556080820151816004015560a08201518160050160006101000a81548160ff02191690831515021790555050505080935050505092915050565b6000806024600143034060018054905042604051602001808481526020018381526020018281526020019350505050604051602081830303815290604052805190602001206001900481151561068957fe5b06905060018190806001815401808255809150509060018203906000526020600020016000909192909190915055508091505090565b6000806000905060008090505b8451811015610b6c578585828151811015156106e457fe5b9060200190602002015114801561071257506025858281518110151561070657fe5b90602001906020020151105b1561073b576024848281518110151561072757fe5b906020019060200201510282019150610b5f565b6025858281518110151561074b57fe5b9060200190602002015114801561076e5750600060038781151561076b57fe5b06145b15610797576003848281518110151561078357fe5b906020019060200201510282019150610b5e565b602685828151811015156107a757fe5b906020019060200201511480156107ca575060026003878115156107c757fe5b06145b156107f357600384828151811015156107df57fe5b906020019060200201510282019150610b5d565b6027858281518110151561080357fe5b906020019060200201511480156108265750600160038781151561082357fe5b06145b1561084f576003848281518110151561083b57fe5b906020019060200201510282019150610b5c565b6028858281518110151561085f57fe5b906020019060200201511480156108765750600086115b80156108825750600d86105b156108ab576003848281518110151561089757fe5b906020019060200201510282019150610b5b565b602985828151811015156108bb57fe5b906020019060200201511480156108d25750600c86115b80156108de5750601986105b1561090757600384828151811015156108f357fe5b906020019060200201510282019150610b5a565b602a858281518110151561091757fe5b9060200190602002015114801561092e5750601886115b15610957576003848281518110151561094357fe5b906020019060200201510282019150610b59565b602b858281518110151561096757fe5b9060200190602002015114801561097e5750600086115b801561098a5750601386105b156109b3576002848281518110151561099f57fe5b906020019060200201510282019150610b58565b603085828151811015156109c357fe5b906020019060200201511480156109da5750601286115b15610a0357600284828151811015156109ef57fe5b906020019060200201510282019150610b57565b602c8582815181101515610a1357fe5b90602001906020020151148015610a3657506000600287811515610a3357fe5b06145b15610a5f5760028482815181101515610a4b57fe5b906020019060200201510282019150610b56565b602f8582815181101515610a6f57fe5b90602001906020020151148015610a9257506001600287811515610a8f57fe5b06145b15610abb5760028482815181101515610aa757fe5b906020019060200201510282019150610b55565b602d8582815181101515610acb57fe5b90602001906020020151148015610ae0575060005b15610b095760028482815181101515610af557fe5b906020019060200201510282019150610b54565b602e8582815181101515610b1957fe5b90602001906020020151148015610b2e575060005b15610b535760028482815181101515610b4357fe5b9060200190602002015102820191505b5b5b5b5b5b5b5b5b5b5b5b5b80806001019150506106cc565b50809150509392505050565b60c06040519081016040528060008152602001600073ffffffffffffffffffffffffffffffffffffffff1681526020016060815260200160008152602001600081526020016000151581525090565b828054828255906000526020600020908101928215610c03579160200282015b82811115610c02578251825591602001919060010190610be7565b5b509050610c109190610c14565b5090565b610c3691905b80821115610c32576000816000905550600101610c1a565b5090565b90565b600082601f8301121515610c4c57600080fd5b8135610c5f610c5a82611102565b6110d5565b91508181835260208401935060208101905083856020840282011115610c8457600080fd5b60005b83811015610cb45781610c9a8882610cbe565b845260208401935060208301925050600181019050610c87565b5050505092915050565b6000610cca82356111e1565b905092915050565b600060208284031215610ce457600080fd5b600082013567ffffffffffffffff811115610cfe57600080fd5b610d0a84828501610c39565b91505092915050565b60008060408385031215610d2657600080fd5b600083013567ffffffffffffffff811115610d4057600080fd5b610d4c85828601610c39565b925050602083013567ffffffffffffffff811115610d6957600080fd5b610d7585828601610c39565b9150509250929050565b610d8881611199565b82525050565b6000610d9982611151565b80845260208401935083602082028501610db28561112a565b60005b84811015610deb578383038852610dcd838351610f81565b9250610dd882611172565b9150602088019750600181019050610db5565b508196508694505050505092915050565b6000610e0782611167565b808452602084019350610e1983611144565b60005b82811015610e4b57610e2f86835161100a565b610e388261118c565b9150602086019550600181019050610e1c565b50849250505092915050565b6000610e628261115c565b808452602084019350610e7483611137565b60005b82811015610ea657610e8a86835161100a565b610e938261117f565b9150602086019550600181019050610e77565b50849250505092915050565b610ebb816111ab565b82525050565b6000601c82527f4f6e6c79204f776e65722063616e2073656520746869732066756e63000000006020830152604082019050919050565b600060c083016000830151610f10600086018261100a565b506020830151610f236020860182610d7f565b5060408301518482036040860152610f3b8282610e57565b9150506060830151610f50606086018261100a565b506080830151610f63608086018261100a565b5060a0830151610f7660a0860182610eb2565b508091505092915050565b600060c083016000830151610f99600086018261100a565b506020830151610fac6020860182610d7f565b5060408301518482036040860152610fc48282610e57565b9150506060830151610fd9606086018261100a565b506080830151610fec608086018261100a565b5060a0830151610fff60a0860182610eb2565b508091505092915050565b611013816111d7565b82525050565b600060208201905061102e6000830184610d7f565b92915050565b6000602082019050818103600083015261104e8184610d8e565b905092915050565b600060208201905081810360008301526110708184610dfc565b905092915050565b6000602082019050818103600083015261109181610ec1565b9050919050565b600060208201905081810360008301526110b28184610ef8565b905092915050565b60006020820190506110cf600083018461100a565b92915050565b6000604051905081810181811067ffffffffffffffff821117156110f857600080fd5b8060405250919050565b600067ffffffffffffffff82111561111957600080fd5b602082029050602081019050919050565b6000602082019050919050565b6000602082019050919050565b6000602082019050919050565b600081519050919050565b600081519050919050565b600081519050919050565b6000602082019050919050565b6000602082019050919050565b6000602082019050919050565b60006111a4826111b7565b9050919050565b60008115159050919050565b600073ffffffffffffffffffffffffffffffffffffffff82169050919050565b6000819050919050565b600081905091905056fea265627a7a7230582051113b11a025d636480bd9199198fc9bcf5b2c46aa8d2cc4a8a16e2208dcf3336c6578706572696d656e74616cf50037",
  "source": "pragma solidity ^0.5.0;\r\npragma experimental ABIEncoderV2;\r\n\r\ncontract CryptoRoulette {\r\n    struct Spin {\r\n        uint time;\r\n        address better;\r\n        uint[] selectedItemID;\r\n        uint totalFundsPlaced;\r\n        uint selectedNumber;\r\n        bool isWinningSpin;\r\n    }\r\n\r\n    address private _contractOwner;\r\n    function getContractOwner() public view returns (address) {\r\n        return _contractOwner;\r\n    }\r\n\r\n    uint[] private _lastSpinResults;\r\n    function getSpinResults() public view returns (uint[] memory) {\r\n        return _lastSpinResults;\r\n    }\r\n\r\n    Spin[] private _lastSpins;\r\n    function getLastSpins() public view returns (Spin[] memory){\r\n        return _lastSpins;\r\n    }\r\n\r\n    constructor() public payable {\r\n        _contractOwner = msg.sender;\r\n    }\r\n\r\n    function placeBet(uint[] memory betIDs, uint[] memory bets) public payable returns (Spin memory) {\r\n        uint selectedNumber = wheelSpin();\r\n        uint payoutAmount = calculatePayout(selectedNumber, betIDs, bets);\r\n        if(payoutAmount != 0) {\r\n            // transfers funds to winner\r\n            msg.sender.transfer(payoutAmount);\r\n        }\r\n        Spin memory newSpin = Spin({\r\n            time: now,\r\n            better: msg.sender,\r\n            selectedItemID: betIDs,\r\n            totalFundsPlaced: sumArray(bets),\r\n            selectedNumber: selectedNumber,\r\n            isWinningSpin: payoutAmount != 0\r\n        });\r\n        _lastSpins.push(newSpin);\r\n        return newSpin;\r\n    }\r\n\r\n    function wheelSpin() public returns (uint) {\r\n        // actually this function just generates random number\r\n        uint _randomNumber = (uint(keccak256(abi.encodePacked(blockhash(block.number - 1), _lastSpinResults.length, block.timestamp)))) % 36;\r\n        _lastSpinResults.push(_randomNumber);\r\n        return _randomNumber;\r\n    }\r\n\r\n    function sumArray(uint[] memory arrayToSum) public pure returns (uint _sum) {\r\n        _sum = 0;\r\n        for (uint i = 0; i < arrayToSum.length; i++) {\r\n            _sum += arrayToSum[i];\r\n        }\r\n    }\r\n\r\n    modifier onlyOwner() {\r\n        // Ensure the participant awarding the ether is the manager\r\n        require(\r\n            msg.sender == _contractOwner,\r\n            \"Only Owner can see this func\"\r\n        );\r\n        _;\r\n    }\r\n\r\n    function getBalance() public onlyOwner view returns(uint){\r\n        // returns current balance of smart contract, notice this function is restricted to only contract owner\r\n        return address(this).balance;\r\n    }\r\n\r\n    modifier minBet() {\r\n        // minimum amount ether required for player to place bet\r\n        require(msg.value == .01 ether, \"Minimal ether required\");\r\n        _;\r\n    }\r\n\r\n    function calculatePayout(uint spinResult, uint[] memory placedBetsID, uint[] memory bets)  private pure returns (uint) {\r\n        // this function check whether array contains number, ie. if spinResult is among placed bets from user\r\n        uint payout = 0;\r\n        for(uint i = 0; i < placedBetsID.length; i++) {\r\n            if(placedBetsID[i] == spinResult && placedBetsID[i] < 37) {\r\n                payout += bets[i] * 36;\r\n            }\r\n            // rows 2to1\r\n            else if(placedBetsID[i] == 37 && spinResult % 3 == 0){\r\n                payout += bets[i] * 3;\r\n            }\r\n            else if(placedBetsID[i] == 38 && spinResult % 3 == 2) {\r\n                payout += bets[i] * 3;\r\n            }\r\n            else if(placedBetsID[i] == 39 && spinResult % 3 == 1)  {\r\n                payout += bets[i] * 3;\r\n            }\r\n            // cols => dozens\r\n            else if(placedBetsID[i] == 40 && spinResult > 0 && spinResult < 13) {\r\n                payout += bets[i] * 3;\r\n            }\r\n            else if(placedBetsID[i] == 41 && spinResult > 12 && spinResult < 25) {\r\n                payout += bets[i] * 3;\r\n            }\r\n            else if(placedBetsID[i] == 42 && spinResult > 24) {\r\n                payout += bets[i] * 3;\r\n            }\r\n            // low or high numbers\r\n            else if(placedBetsID[i] == 43 && spinResult > 0 && spinResult < 19) {\r\n                payout += bets[i] * 2;\r\n            }\r\n            else if(placedBetsID[i] == 48 && spinResult > 18) {\r\n                payout += bets[i] * 2;\r\n            }\r\n            // odd or even numbers\r\n            else if(placedBetsID[i] == 44 && spinResult % 2 == 0) {\r\n               payout += bets[i] * 2;\r\n            }\r\n            else if(placedBetsID[i] == 47 && spinResult % 2 == 1) {\r\n                payout += bets[i] * 2;\r\n            }\r\n            // red\r\n            else if(placedBetsID[i] == 45 && false) {\r\n                payout += bets[i] * 2;\r\n            }\r\n            // black\r\n            else if(placedBetsID[i] == 46 && false) {\r\n                payout += bets[i] * 2;\r\n            }\r\n        }\r\n        return payout;\r\n    }\r\n}",
  "sourcePath": "C:/Users/sena/Documents/PmfSmartContracts/app/contracts/CryptoRoulette.sol",
  "compiler": {
    "name": "solc",
    "version": "0.5.0+commit.1d4f565a.Emscripten.clang"
  },
  "schemaVersion": "3.0.8",
  "updatedAt": "2019-06-25T17:13:41.858Z",
  "devdoc": {
    "methods": {}
  },
  "userdoc": {
    "methods": {}
  }
}