{
  "contractName": "CryptoRoulette",
  "abi": [
    {
      "inputs": [],
      "payable": true,
      "stateMutability": "payable",
      "type": "constructor",
      "signature": "constructor"
    },
    {
      "anonymous": false,
      "inputs": [
        {
          "indexed": true,
          "name": "sender",
          "type": "address"
        },
        {
          "indexed": false,
          "name": "won",
          "type": "bool"
        },
        {
          "indexed": false,
          "name": "amountWon",
          "type": "uint256"
        }
      ],
      "name": "SpinResultEvent",
      "type": "event",
      "signature": "0x573c250816ba4ae451e040d18622376323c4cfe81596d0194b34b3f4f13d0e50"
    },
    {
      "constant": true,
      "inputs": [],
      "name": "getContractOwner",
      "outputs": [
        {
          "name": "",
          "type": "address"
        }
      ],
      "payable": false,
      "stateMutability": "view",
      "type": "function",
      "signature": "0x442890d5"
    },
    {
      "constant": true,
      "inputs": [],
      "name": "getSpinResults",
      "outputs": [
        {
          "name": "",
          "type": "uint256[]"
        }
      ],
      "payable": false,
      "stateMutability": "view",
      "type": "function",
      "signature": "0x47fd50bb"
    },
    {
      "constant": true,
      "inputs": [],
      "name": "getLastSpins",
      "outputs": [
        {
          "components": [
            {
              "name": "time",
              "type": "uint256"
            },
            {
              "name": "better",
              "type": "address"
            },
            {
              "name": "selectedItemID",
              "type": "uint256[]"
            },
            {
              "name": "totalFundsPlaced",
              "type": "uint256"
            },
            {
              "name": "selectedNumber",
              "type": "uint256"
            },
            {
              "name": "isWinningSpin",
              "type": "bool"
            }
          ],
          "name": "",
          "type": "tuple[]"
        }
      ],
      "payable": false,
      "stateMutability": "view",
      "type": "function",
      "signature": "0x8eb1807d"
    },
    {
      "constant": false,
      "inputs": [
        {
          "name": "betIDs",
          "type": "uint256[]"
        },
        {
          "name": "bets",
          "type": "uint256[]"
        }
      ],
      "name": "placeBet",
      "outputs": [],
      "payable": true,
      "stateMutability": "payable",
      "type": "function",
      "signature": "0xbdd60e92"
    },
    {
      "constant": false,
      "inputs": [],
      "name": "wheelSpin",
      "outputs": [
        {
          "name": "",
          "type": "uint256"
        }
      ],
      "payable": false,
      "stateMutability": "nonpayable",
      "type": "function",
      "signature": "0xef227ec2"
    },
    {
      "constant": true,
      "inputs": [
        {
          "name": "arrayToSum",
          "type": "uint256[]"
        }
      ],
      "name": "sumArray",
      "outputs": [
        {
          "name": "_sum",
          "type": "uint256"
        }
      ],
      "payable": false,
      "stateMutability": "pure",
      "type": "function",
      "signature": "0x1e2aea06"
    },
    {
      "constant": true,
      "inputs": [],
      "name": "getBalance",
      "outputs": [
        {
          "name": "",
          "type": "uint256"
        }
      ],
      "payable": false,
      "stateMutability": "view",
      "type": "function",
      "signature": "0x12065fe0"
    },
    {
      "constant": false,
      "inputs": [],
      "name": "payout",
      "outputs": [],
      "payable": true,
      "stateMutability": "payable",
      "type": "function",
      "signature": "0x63bd1d4a"
    }
  ],
  "bytecode": "0x6080604052336000806101000a81548173ffffffffffffffffffffffffffffffffffffffff021916908373ffffffffffffffffffffffffffffffffffffffff1602179055506112d4806100536000396000f3fe60806040526004361061008e576000357c0100000000000000000000000000000000000000000000000000000000900463ffffffff16806312065fe0146100935780631e2aea06146100be578063442890d5146100fb57806347fd50bb1461012657806363bd1d4a146101515780638eb1807d1461015b578063bdd60e9214610186578063ef227ec2146101a2575b600080fd5b34801561009f57600080fd5b506100a86101cd565b6040516100b59190611169565b60405180910390f35b3480156100ca57600080fd5b506100e560048036036100e09190810190610e03565b61027d565b6040516100f29190611169565b60405180910390f35b34801561010757600080fd5b506101106102c0565b60405161011d91906110c1565b60405180910390f35b34801561013257600080fd5b5061013b6102e9565b60405161014891906110fe565b60405180910390f35b610159610341565b005b34801561016757600080fd5b50610170610432565b60405161017d91906110dc565b60405180910390f35b6101a0600480360361019b9190810190610e44565b610579565b005b3480156101ae57600080fd5b506101b7610770565b6040516101c49190611169565b60405180910390f35b60008060009054906101000a900473ffffffffffffffffffffffffffffffffffffffff1673ffffffffffffffffffffffffffffffffffffffff163373ffffffffffffffffffffffffffffffffffffffff16141515610260576040517f08c379a000000000000000000000000000000000000000000000000000000000815260040161025790611149565b60405180910390fd5b3073ffffffffffffffffffffffffffffffffffffffff1631905090565b600080905060008090505b82518110156102ba57828181518110151561029f57fe5b90602001906020020151820191508080600101915050610288565b50919050565b60008060009054906101000a900473ffffffffffffffffffffffffffffffffffffffff16905090565b6060600180548060200260200160405190810160405280929190818152602001828054801561033757602002820191906000526020600020905b815481526020019060010190808311610323575b5050505050905090565b6000809054906101000a900473ffffffffffffffffffffffffffffffffffffffff1673ffffffffffffffffffffffffffffffffffffffff163373ffffffffffffffffffffffffffffffffffffffff161415156103d2576040517f08c379a00000000000000000000000000000000000000000000000000000000081526004016103c990611149565b60405180910390fd5b3373ffffffffffffffffffffffffffffffffffffffff166108fc3073ffffffffffffffffffffffffffffffffffffffff16319081150290604051600060405180830381858888f1935050505015801561042f573d6000803e3d6000fd5b50565b60606002805480602002602001604051908101604052809291908181526020016000905b82821015610570578382906000526020600020906006020160c06040519081016040529081600082015481526020016001820160009054906101000a900473ffffffffffffffffffffffffffffffffffffffff1673ffffffffffffffffffffffffffffffffffffffff1673ffffffffffffffffffffffffffffffffffffffff1681526020016002820180548060200260200160405190810160405280929190818152602001828054801561052957602002820191906000526020600020905b815481526020019060010190808311610515575b5050505050815260200160038201548152602001600482015481526020016005820160009054906101000a900460ff16151515158152505081526020019060010190610456565b50505050905090565b6000610583610770565b905060006105928285856107f0565b90506000811415156105e6573373ffffffffffffffffffffffffffffffffffffffff166108fc829081150290604051600060405180830381858888f193505050501580156105e4573d6000803e3d6000fd5b505b6105ee610ca9565b60c0604051908101604052804281526020013373ffffffffffffffffffffffffffffffffffffffff16815260200186815260200161062b8661027d565b8152602001848152602001600084141515158152509050600281908060018154018082558091505090600182039060005260206000209060060201600090919290919091506000820151816000015560208201518160010160006101000a81548173ffffffffffffffffffffffffffffffffffffffff021916908373ffffffffffffffffffffffffffffffffffffffff16021790555060408201518160020190805190602001906106dd929190610cf8565b50606082015181600301556080820151816004015560a08201518160050160006101000a81548160ff0219169083151502179055505050503373ffffffffffffffffffffffffffffffffffffffff167f573c250816ba4ae451e040d18622376323c4cfe81596d0194b34b3f4f13d0e50600084141584604051610761929190611120565b60405180910390a25050505050565b60008060246001430340600180549050604051602001808381526020018281526020019250505060405160208183030381529060405280519060200120600190048115156107ba57fe5b06905060018190806001815401808255809150509060018203906000526020600020016000909192909190915055508091505090565b6000806000905060008090505b8451811015610c9d5785858281518110151561081557fe5b9060200190602002015114801561084357506025858281518110151561083757fe5b90602001906020020151105b1561086c576024848281518110151561085857fe5b906020019060200201510282019150610c90565b6025858281518110151561087c57fe5b9060200190602002015114801561089f5750600060038781151561089c57fe5b06145b156108c857600384828151811015156108b457fe5b906020019060200201510282019150610c8f565b602685828151811015156108d857fe5b906020019060200201511480156108fb575060026003878115156108f857fe5b06145b15610924576003848281518110151561091057fe5b906020019060200201510282019150610c8e565b6027858281518110151561093457fe5b906020019060200201511480156109575750600160038781151561095457fe5b06145b15610980576003848281518110151561096c57fe5b906020019060200201510282019150610c8d565b6028858281518110151561099057fe5b906020019060200201511480156109a75750600086115b80156109b35750600d86105b156109dc57600384828151811015156109c857fe5b906020019060200201510282019150610c8c565b602985828151811015156109ec57fe5b90602001906020020151148015610a035750600c86115b8015610a0f5750601986105b15610a385760038482815181101515610a2457fe5b906020019060200201510282019150610c8b565b602a8582815181101515610a4857fe5b90602001906020020151148015610a5f5750601886115b15610a885760038482815181101515610a7457fe5b906020019060200201510282019150610c8a565b602b8582815181101515610a9857fe5b90602001906020020151148015610aaf5750600086115b8015610abb5750601386105b15610ae45760028482815181101515610ad057fe5b906020019060200201510282019150610c89565b60308582815181101515610af457fe5b90602001906020020151148015610b0b5750601286115b15610b345760028482815181101515610b2057fe5b906020019060200201510282019150610c88565b602c8582815181101515610b4457fe5b90602001906020020151148015610b6757506000600287811515610b6457fe5b06145b15610b905760028482815181101515610b7c57fe5b906020019060200201510282019150610c87565b602f8582815181101515610ba057fe5b90602001906020020151148015610bc357506001600287811515610bc057fe5b06145b15610bec5760028482815181101515610bd857fe5b906020019060200201510282019150610c86565b602d8582815181101515610bfc57fe5b90602001906020020151148015610c11575060005b15610c3a5760028482815181101515610c2657fe5b906020019060200201510282019150610c85565b602e8582815181101515610c4a57fe5b90602001906020020151148015610c5f575060005b15610c845760028482815181101515610c7457fe5b9060200190602002015102820191505b5b5b5b5b5b5b5b5b5b5b5b5b80806001019150506107fd565b50809150509392505050565b60c06040519081016040528060008152602001600073ffffffffffffffffffffffffffffffffffffffff1681526020016060815260200160008152602001600081526020016000151581525090565b828054828255906000526020600020908101928215610d34579160200282015b82811115610d33578251825591602001919060010190610d18565b5b509050610d419190610d45565b5090565b610d6791905b80821115610d63576000816000905550600101610d4b565b5090565b90565b600082601f8301121515610d7d57600080fd5b8135610d90610d8b826111b1565b611184565b91508181835260208401935060208101905083856020840282011115610db557600080fd5b60005b83811015610de55781610dcb8882610def565b845260208401935060208301925050600181019050610db8565b5050505092915050565b6000610dfb8235611290565b905092915050565b600060208284031215610e1557600080fd5b600082013567ffffffffffffffff811115610e2f57600080fd5b610e3b84828501610d6a565b91505092915050565b60008060408385031215610e5757600080fd5b600083013567ffffffffffffffff811115610e7157600080fd5b610e7d85828601610d6a565b925050602083013567ffffffffffffffff811115610e9a57600080fd5b610ea685828601610d6a565b9150509250929050565b610eb981611248565b82525050565b6000610eca82611200565b80845260208401935083602082028501610ee3856111d9565b60005b84811015610f1c578383038852610efe838351611029565b9250610f0982611221565b9150602088019750600181019050610ee6565b508196508694505050505092915050565b6000610f3882611216565b808452602084019350610f4a836111f3565b60005b82811015610f7c57610f608683516110b2565b610f698261123b565b9150602086019550600181019050610f4d565b50849250505092915050565b6000610f938261120b565b808452602084019350610fa5836111e6565b60005b82811015610fd757610fbb8683516110b2565b610fc48261122e565b9150602086019550600181019050610fa8565b50849250505092915050565b610fec8161125a565b82525050565b6000601c82527f4f6e6c79204f776e65722063616e2073656520746869732066756e63000000006020830152604082019050919050565b600060c08301600083015161104160008601826110b2565b5060208301516110546020860182610eb0565b506040830151848203604086015261106c8282610f88565b915050606083015161108160608601826110b2565b50608083015161109460808601826110b2565b5060a08301516110a760a0860182610fe3565b508091505092915050565b6110bb81611286565b82525050565b60006020820190506110d66000830184610eb0565b92915050565b600060208201905081810360008301526110f68184610ebf565b905092915050565b600060208201905081810360008301526111188184610f2d565b905092915050565b60006040820190506111356000830185610fe3565b61114260208301846110b2565b9392505050565b6000602082019050818103600083015261116281610ff2565b9050919050565b600060208201905061117e60008301846110b2565b92915050565b6000604051905081810181811067ffffffffffffffff821117156111a757600080fd5b8060405250919050565b600067ffffffffffffffff8211156111c857600080fd5b602082029050602081019050919050565b6000602082019050919050565b6000602082019050919050565b6000602082019050919050565b600081519050919050565b600081519050919050565b600081519050919050565b6000602082019050919050565b6000602082019050919050565b6000602082019050919050565b600061125382611266565b9050919050565b60008115159050919050565b600073ffffffffffffffffffffffffffffffffffffffff82169050919050565b6000819050919050565b600081905091905056fea265627a7a72305820aba6c57cba6e5893f18b22dd0e4890a5f4afc7a756cbe09ebf43fca0691c2cd96c6578706572696d656e74616cf50037",
  "source": "pragma solidity ^0.5.0;\r\npragma experimental ABIEncoderV2;\r\n\r\ncontract CryptoRoulette {\r\n    struct Spin {\r\n        uint time;\r\n        address better;\r\n        uint[] selectedItemID;\r\n        uint totalFundsPlaced;\r\n        uint selectedNumber;\r\n        bool isWinningSpin;\r\n    }\r\n\r\n    address private _contractOwner;\r\n    function getContractOwner() public view returns (address) {\r\n        return _contractOwner;\r\n    }\r\n\r\n    uint[] private _lastSpinResults;\r\n    function getSpinResults() public view returns (uint[] memory) {\r\n        return _lastSpinResults;\r\n    }\r\n\r\n    Spin[] private _lastSpins;\r\n    function getLastSpins() public view returns (Spin[] memory){\r\n        return _lastSpins;\r\n    }\r\n\r\n    constructor() public payable {\r\n        _contractOwner = msg.sender;\r\n    }\r\n\r\n    event SpinResultEvent (\r\n        address indexed sender,\r\n        bool won,\r\n        uint256 amountWon\r\n    );\r\n\r\n    function placeBet(uint[] memory betIDs, uint[] memory bets) public payable {\r\n        uint selectedNumber = wheelSpin();\r\n        uint payoutAmount = calculatePayout(selectedNumber, betIDs, bets);\r\n        if(payoutAmount != 0) {\r\n            // transfers funds to winner\r\n            msg.sender.transfer(payoutAmount);\r\n        }\r\n        Spin memory newSpin = Spin({\r\n            time: block.timestamp,\r\n            better: msg.sender,\r\n            selectedItemID: betIDs,\r\n            totalFundsPlaced: sumArray(bets),\r\n            selectedNumber: selectedNumber,\r\n            isWinningSpin: payoutAmount != 0\r\n        });\r\n        _lastSpins.push(newSpin);\r\n        emit SpinResultEvent(msg.sender, payoutAmount != 0, payoutAmount);\r\n    }\r\n\r\n    function wheelSpin() public returns (uint) {\r\n        // actually this function just generates random number\r\n        uint _randomNumber = (uint(keccak256(abi.encodePacked(blockhash(block.number - 1), _lastSpinResults.length)))) % 36;\r\n        _lastSpinResults.push(_randomNumber);\r\n        return _randomNumber;\r\n    }\r\n\r\n    function sumArray(uint[] memory arrayToSum) public pure returns (uint _sum) {\r\n        _sum = 0;\r\n        for (uint i = 0; i < arrayToSum.length; i++) {\r\n            _sum += arrayToSum[i];\r\n        }\r\n    }\r\n\r\n    modifier onlyOwner() {\r\n        // Ensure the participant awarding the ether is the manager\r\n        require(\r\n            msg.sender == _contractOwner,\r\n            \"Only Owner can see this func\"\r\n        );\r\n        _;\r\n    }\r\n\r\n    function getBalance() public onlyOwner view returns(uint){\r\n        // returns current balance of smart contract, notice this function is restricted to only contract owner\r\n        return address(this).balance;\r\n    }\r\n\r\n    function payout() public onlyOwner payable {\r\n        return msg.sender.transfer(address(this).balance);\r\n    }\r\n\r\n    modifier minBet() {\r\n        // minimum amount ether required for player to place bet\r\n        require(msg.value == .01 ether, \"Minimal ether required\");\r\n        _;\r\n    }\r\n\r\n    function calculatePayout(uint spinResult, uint[] memory placedBetsID, uint[] memory bets)  private pure returns (uint) {\r\n        // this function check whether array contains number, ie. if spinResult is among placed bets from user\r\n        uint payout = 0;\r\n        for(uint i = 0; i < placedBetsID.length; i++) {\r\n            if(placedBetsID[i] == spinResult && placedBetsID[i] < 37) {\r\n                payout += bets[i] * 36;\r\n            }\r\n            // rows 2to1\r\n            else if(placedBetsID[i] == 37 && spinResult % 3 == 0){\r\n                payout += bets[i] * 3;\r\n            }\r\n            else if(placedBetsID[i] == 38 && spinResult % 3 == 2) {\r\n                payout += bets[i] * 3;\r\n            }\r\n            else if(placedBetsID[i] == 39 && spinResult % 3 == 1)  {\r\n                payout += bets[i] * 3;\r\n            }\r\n            // cols => dozens\r\n            else if(placedBetsID[i] == 40 && spinResult > 0 && spinResult < 13) {\r\n                payout += bets[i] * 3;\r\n            }\r\n            else if(placedBetsID[i] == 41 && spinResult > 12 && spinResult < 25) {\r\n                payout += bets[i] * 3;\r\n            }\r\n            else if(placedBetsID[i] == 42 && spinResult > 24) {\r\n                payout += bets[i] * 3;\r\n            }\r\n            // low or high numbers\r\n            else if(placedBetsID[i] == 43 && spinResult > 0 && spinResult < 19) {\r\n                payout += bets[i] * 2;\r\n            }\r\n            else if(placedBetsID[i] == 48 && spinResult > 18) {\r\n                payout += bets[i] * 2;\r\n            }\r\n            // odd or even numbers\r\n            else if(placedBetsID[i] == 44 && spinResult % 2 == 0) {\r\n               payout += bets[i] * 2;\r\n            }\r\n            else if(placedBetsID[i] == 47 && spinResult % 2 == 1) {\r\n                payout += bets[i] * 2;\r\n            }\r\n            // red\r\n            else if(placedBetsID[i] == 45 && false) {\r\n                payout += bets[i] * 2;\r\n            }\r\n            // black\r\n            else if(placedBetsID[i] == 46 && false) {\r\n                payout += bets[i] * 2;\r\n            }\r\n        }\r\n        return payout;\r\n    }\r\n}",
  "sourcePath": "C:/Users/sena/Documents/PmfSmartContracts/app/contracts/CryptoRoulette.sol",
  "compiler": {
    "name": "solc",
    "version": "0.5.0+commit.1d4f565a.Emscripten.clang"
  },
  "schemaVersion": "3.0.6",
  "updatedAt": "2019-08-24T11:22:50.334Z",
  "devdoc": {
    "methods": {}
  },
  "userdoc": {
    "methods": {}
  }
}