{
  "contractName": "CryptoRoulette",
  "abi": [
    {
      "inputs": [],
      "payable": true,
      "stateMutability": "payable",
      "type": "constructor",
      "signature": "constructor"
    },
    {
      "constant": true,
      "inputs": [],
      "name": "getSpinResults",
      "outputs": [
        {
          "name": "",
          "type": "uint256[]"
        }
      ],
      "payable": false,
      "stateMutability": "view",
      "type": "function",
      "signature": "0x47fd50bb"
    },
    {
      "constant": true,
      "inputs": [],
      "name": "getLastSpins",
      "outputs": [
        {
          "components": [
            {
              "name": "_better",
              "type": "address"
            },
            {
              "name": "_selectedItemID",
              "type": "uint256[]"
            },
            {
              "name": "_totalFundsPlaced",
              "type": "uint256"
            },
            {
              "name": "_winingNumber",
              "type": "uint256"
            },
            {
              "name": "_isWinningTicket",
              "type": "bool"
            }
          ],
          "name": "",
          "type": "tuple[]"
        }
      ],
      "payable": false,
      "stateMutability": "view",
      "type": "function",
      "signature": "0x8eb1807d"
    },
    {
      "constant": false,
      "inputs": [
        {
          "name": "betIDs",
          "type": "uint256[]"
        },
        {
          "name": "bets",
          "type": "uint256[]"
        }
      ],
      "name": "placeBet",
      "outputs": [
        {
          "name": "",
          "type": "tuple",
          "components": [
            {
              "name": "_better",
              "type": "address"
            },
            {
              "name": "_selectedItemID",
              "type": "uint256[]"
            },
            {
              "name": "_totalFundsPlaced",
              "type": "uint256"
            },
            {
              "name": "_winingNumber",
              "type": "uint256"
            },
            {
              "name": "_isWinningTicket",
              "type": "bool"
            }
          ]
        }
      ],
      "payable": true,
      "stateMutability": "payable",
      "type": "function",
      "signature": "0xbdd60e92"
    },
    {
      "constant": false,
      "inputs": [],
      "name": "wheelSpin",
      "outputs": [
        {
          "name": "",
          "type": "uint256"
        }
      ],
      "payable": false,
      "stateMutability": "nonpayable",
      "type": "function",
      "signature": "0xef227ec2"
    }
  ],
  "bytecode": "0x6080604052336000806101000a81548173ffffffffffffffffffffffffffffffffffffffff021916908373ffffffffffffffffffffffffffffffffffffffff16021790555034600181905550610ae18061005a6000396000f3fe608060405260043610610062576000357c0100000000000000000000000000000000000000000000000000000000900463ffffffff16806347fd50bb146100675780638eb1807d14610092578063bdd60e92146100bd578063ef227ec2146100ed575b600080fd5b34801561007357600080fd5b5061007c610118565b6040516100899190610932565b60405180910390f35b34801561009e57600080fd5b506100a7610170565b6040516100b49190610910565b60405180910390f35b6100d760048036036100d29190810190610667565b6102ad565b6040516100e49190610954565b60405180910390f35b3480156100f957600080fd5b506101026103f6565b60405161010f9190610976565b60405180910390f35b6060600280548060200260200160405190810160405280929190818152602001828054801561016657602002820191906000526020600020905b815481526020019060010190808311610152575b5050505050905090565b60606003805480602002602001604051908101604052809291908181526020016000905b828210156102a4578382906000526020600020906005020160a060405190810160405290816000820160009054906101000a900473ffffffffffffffffffffffffffffffffffffffff1673ffffffffffffffffffffffffffffffffffffffff1673ffffffffffffffffffffffffffffffffffffffff1681526020016001820180548060200260200160405190810160405280929190818152602001828054801561025d57602002820191906000526020600020905b815481526020019060010190808311610249575b5050505050815260200160028201548152602001600382015481526020016004820160009054906101000a900460ff16151515158152505081526020019060010190610194565b50505050905090565b6102b5610514565b60006102bf6103f6565b905060006102cd828661047e565b90506102d7610514565b60a0604051908101604052803373ffffffffffffffffffffffffffffffffffffffff16815260200187815260200161030e876104d1565b815260200184815260200183151581525090506003819080600181540180825580915050906001820390600052602060002090600502016000909192909190915060008201518160000160006101000a81548173ffffffffffffffffffffffffffffffffffffffff021916908373ffffffffffffffffffffffffffffffffffffffff16021790555060208201518160010190805190602001906103b292919061055c565b50604082015181600201556060820151816003015560808201518160040160006101000a81548160ff02191690831515021790555050505080935050505092915050565b6000806024600143034060028054905042604051602001808481526020018381526020018281526020019350505050604051602081830303815290604052805190602001206001900481151561044857fe5b06905060028190806001815401808255809150509060018203906000526020600020016000909192909190915055508091505090565b600080600090505b82518110156104c55783838281518110151561049e57fe5b9060200190602002015114156104b85760019150506104cb565b8080600101915050610486565b50600090505b92915050565b600080905060008090505b825181101561050e5782818151811015156104f357fe5b906020019060200201518201915080806001019150506104dc565b50919050565b60a060405190810160405280600073ffffffffffffffffffffffffffffffffffffffff1681526020016060815260200160008152602001600081526020016000151581525090565b828054828255906000526020600020908101928215610598579160200282015b8281111561059757825182559160200191906001019061057c565b5b5090506105a591906105a9565b5090565b6105cb91905b808211156105c75760008160009055506001016105af565b5090565b90565b600082601f83011215156105e157600080fd5b81356105f46105ef826109be565b610991565b9150818183526020840193506020810190508385602084028201111561061957600080fd5b60005b83811015610649578161062f8882610653565b84526020840193506020830192505060018101905061061c565b5050505092915050565b600061065f8235610a9d565b905092915050565b6000806040838503121561067a57600080fd5b600083013567ffffffffffffffff81111561069457600080fd5b6106a0858286016105ce565b925050602083013567ffffffffffffffff8111156106bd57600080fd5b6106c9858286016105ce565b9150509250929050565b6106dc81610a55565b82525050565b60006106ed82610a0d565b80845260208401935083602082028501610706856109e6565b60005b8481101561073f57838303885261072183835161088b565b925061072c82610a2e565b9150602088019750600181019050610709565b508196508694505050505092915050565b600061075b82610a23565b80845260208401935061076d83610a00565b60005b8281101561079f57610783868351610901565b61078c82610a48565b9150602086019550600181019050610770565b50849250505092915050565b60006107b682610a18565b8084526020840193506107c8836109f3565b60005b828110156107fa576107de868351610901565b6107e782610a3b565b91506020860195506001810190506107cb565b50849250505092915050565b61080f81610a67565b82525050565b600060a08301600083015161082d60008601826106d3565b506020830151848203602086015261084582826107ab565b915050604083015161085a6040860182610901565b50606083015161086d6060860182610901565b5060808301516108806080860182610806565b508091505092915050565b600060a0830160008301516108a360008601826106d3565b50602083015184820360208601526108bb82826107ab565b91505060408301516108d06040860182610901565b5060608301516108e36060860182610901565b5060808301516108f66080860182610806565b508091505092915050565b61090a81610a93565b82525050565b6000602082019050818103600083015261092a81846106e2565b905092915050565b6000602082019050818103600083015261094c8184610750565b905092915050565b6000602082019050818103600083015261096e8184610815565b905092915050565b600060208201905061098b6000830184610901565b92915050565b6000604051905081810181811067ffffffffffffffff821117156109b457600080fd5b8060405250919050565b600067ffffffffffffffff8211156109d557600080fd5b602082029050602081019050919050565b6000602082019050919050565b6000602082019050919050565b6000602082019050919050565b600081519050919050565b600081519050919050565b600081519050919050565b6000602082019050919050565b6000602082019050919050565b6000602082019050919050565b6000610a6082610a73565b9050919050565b60008115159050919050565b600073ffffffffffffffffffffffffffffffffffffffff82169050919050565b6000819050919050565b600081905091905056fea265627a7a723058209d1c1d1ef28a72cd24092a71f586290cb8440301a08d484426f883577a086ac06c6578706572696d656e74616cf50037",
  "source": "pragma solidity ^0.5.0;\r\npragma experimental ABIEncoderV2;\r\n\r\ncontract CryptoRoulette {\r\n    struct Spin {\r\n        address _better;\r\n        uint[] _selectedItemID;\r\n        uint _totalFundsPlaced;\r\n        uint _winingNumber;\r\n        bool _isWinningTicket;\r\n    }\r\n\r\n    address private _contractOwner;\r\n    uint private _contractFunds;\r\n    \r\n    uint[] private _lastSpinResults;\r\n    function getSpinResults() public view returns (uint[] memory) {\r\n        return _lastSpinResults;\r\n    }\r\n\r\n    Spin[] private _lastSpins;\r\n    function getLastSpins() public view returns (Spin[] memory){\r\n        return _lastSpins;\r\n    }\r\n\r\n    constructor() public payable {\r\n        _contractOwner = msg.sender;\r\n        _contractFunds = msg.value;\r\n    }\r\n\r\n    function placeBet(uint[] memory betIDs, uint[] memory bets) public payable returns (Spin memory) {\r\n        uint spinResult = wheelSpin();\r\n        bool isWinningTicket = isWinner(spinResult, betIDs);\r\n        Spin memory newSpin = Spin({\r\n            _better: msg.sender,\r\n            _selectedItemID: betIDs,\r\n            _totalFundsPlaced: sumArray(bets), \r\n            _winingNumber: spinResult,\r\n            _isWinningTicket: isWinningTicket\r\n        });\r\n        _lastSpins.push(newSpin);\r\n        return newSpin;\r\n    }\r\n\r\n    function wheelSpin() public returns (uint) {\r\n        // actually this function just generates random number\r\n        uint _randomNumber = (uint(keccak256(abi.encodePacked(blockhash(block.number - 1), _lastSpinResults.length, now)))) % 36;\r\n        _lastSpinResults.push(_randomNumber);\r\n        return _randomNumber;\r\n    }\r\n\r\n    function isWinner(uint spinResult, uint[] memory placedBetsID)  private pure returns (bool) {\r\n        // this function check whether array contains number, ie. if spinResult is among placed bets from user\r\n        for(uint i = 0; i < placedBetsID.length; i++) {\r\n            if(placedBetsID[i] == spinResult) {\r\n                return true;\r\n            }\r\n        }\r\n        return false;\r\n    }\r\n\r\n    function sumArray(uint[] memory placedBets) private pure returns (uint _sum) {\r\n        _sum = 0;\r\n        for (uint i = 0; i < placedBets.length; i++) {\r\n            _sum += placedBets[i];\r\n        }\r\n    }\r\n\r\n    modifier restricted() {\r\n        // Ensure the participant awarding the ether is the manager\r\n        require(msg.sender == _contractOwner);\r\n        _;\r\n    }\r\n\r\n    modifier minBet() {\r\n        // minimum amount ether required for player to place bet\r\n        require(msg.value == .01 ether);\r\n        _;\r\n    }\r\n}",
  "sourcePath": "C:/Users/sena/Documents/PmfSmartContracts/app/contracts/CryptoRoulette.sol",
  "compiler": {
    "name": "solc",
    "version": "0.5.0+commit.1d4f565a.Emscripten.clang"
  },
  "schemaVersion": "3.0.8",
  "updatedAt": "2019-05-06T20:19:47.678Z",
  "devdoc": {
    "methods": {}
  },
  "userdoc": {
    "methods": {}
  }
}