{
  "contractName": "CryptoRoulette",
  "abi": [
    {
      "inputs": [],
      "payable": true,
      "stateMutability": "payable",
      "type": "constructor",
      "signature": "constructor"
    },
    {
      "anonymous": false,
      "inputs": [
        {
          "indexed": true,
          "name": "sender",
          "type": "address"
        },
        {
          "indexed": false,
          "name": "won",
          "type": "bool"
        },
        {
          "indexed": false,
          "name": "amountWon",
          "type": "uint256"
        }
      ],
      "name": "SpinResultEvent",
      "type": "event",
      "signature": "0x573c250816ba4ae451e040d18622376323c4cfe81596d0194b34b3f4f13d0e50"
    },
    {
      "constant": true,
      "inputs": [],
      "name": "getContractOwner",
      "outputs": [
        {
          "name": "",
          "type": "address"
        }
      ],
      "payable": false,
      "stateMutability": "view",
      "type": "function",
      "signature": "0x442890d5"
    },
    {
      "constant": true,
      "inputs": [],
      "name": "getSpinResults",
      "outputs": [
        {
          "name": "",
          "type": "uint256[]"
        }
      ],
      "payable": false,
      "stateMutability": "view",
      "type": "function",
      "signature": "0x47fd50bb"
    },
    {
      "constant": true,
      "inputs": [],
      "name": "getLastSpins",
      "outputs": [
        {
          "components": [
            {
              "name": "time",
              "type": "uint256"
            },
            {
              "name": "better",
              "type": "address"
            },
            {
              "name": "selectedItemID",
              "type": "uint256[]"
            },
            {
              "name": "totalFundsPlaced",
              "type": "uint256"
            },
            {
              "name": "selectedNumber",
              "type": "uint256"
            },
            {
              "name": "isWinningSpin",
              "type": "bool"
            }
          ],
          "name": "",
          "type": "tuple[]"
        }
      ],
      "payable": false,
      "stateMutability": "view",
      "type": "function",
      "signature": "0x8eb1807d"
    },
    {
      "constant": false,
      "inputs": [
        {
          "name": "betIDs",
          "type": "uint256[]"
        },
        {
          "name": "bets",
          "type": "uint256[]"
        }
      ],
      "name": "placeBet",
      "outputs": [],
      "payable": true,
      "stateMutability": "payable",
      "type": "function",
      "signature": "0xbdd60e92"
    },
    {
      "constant": false,
      "inputs": [],
      "name": "wheelSpin",
      "outputs": [
        {
          "name": "",
          "type": "uint256"
        }
      ],
      "payable": false,
      "stateMutability": "nonpayable",
      "type": "function",
      "signature": "0xef227ec2"
    },
    {
      "constant": true,
      "inputs": [
        {
          "name": "arrayToSum",
          "type": "uint256[]"
        }
      ],
      "name": "sumArray",
      "outputs": [
        {
          "name": "_sum",
          "type": "uint256"
        }
      ],
      "payable": false,
      "stateMutability": "pure",
      "type": "function",
      "signature": "0x1e2aea06"
    },
    {
      "constant": true,
      "inputs": [],
      "name": "getBalance",
      "outputs": [
        {
          "name": "",
          "type": "uint256"
        }
      ],
      "payable": false,
      "stateMutability": "view",
      "type": "function",
      "signature": "0x12065fe0"
    }
  ],
  "bytecode": "0x6080604052336000806101000a81548173ffffffffffffffffffffffffffffffffffffffff021916908373ffffffffffffffffffffffffffffffffffffffff1602179055506111ce806100536000396000f3fe608060405260043610610083576000357c0100000000000000000000000000000000000000000000000000000000900463ffffffff16806312065fe0146100885780631e2aea06146100b3578063442890d5146100f057806347fd50bb1461011b5780638eb1807d14610146578063bdd60e9214610171578063ef227ec21461018d575b600080fd5b34801561009457600080fd5b5061009d6101b8565b6040516100aa9190611063565b60405180910390f35b3480156100bf57600080fd5b506100da60048036036100d59190810190610cfd565b610268565b6040516100e79190611063565b60405180910390f35b3480156100fc57600080fd5b506101056102ab565b6040516101129190610fbb565b60405180910390f35b34801561012757600080fd5b506101306102d4565b60405161013d9190610ff8565b60405180910390f35b34801561015257600080fd5b5061015b61032c565b6040516101689190610fd6565b60405180910390f35b61018b60048036036101869190810190610d3e565b610473565b005b34801561019957600080fd5b506101a261066a565b6040516101af9190611063565b60405180910390f35b60008060009054906101000a900473ffffffffffffffffffffffffffffffffffffffff1673ffffffffffffffffffffffffffffffffffffffff163373ffffffffffffffffffffffffffffffffffffffff1614151561024b576040517f08c379a000000000000000000000000000000000000000000000000000000000815260040161024290611043565b60405180910390fd5b3073ffffffffffffffffffffffffffffffffffffffff1631905090565b600080905060008090505b82518110156102a557828181518110151561028a57fe5b90602001906020020151820191508080600101915050610273565b50919050565b60008060009054906101000a900473ffffffffffffffffffffffffffffffffffffffff16905090565b6060600180548060200260200160405190810160405280929190818152602001828054801561032257602002820191906000526020600020905b81548152602001906001019080831161030e575b5050505050905090565b60606002805480602002602001604051908101604052809291908181526020016000905b8282101561046a578382906000526020600020906006020160c06040519081016040529081600082015481526020016001820160009054906101000a900473ffffffffffffffffffffffffffffffffffffffff1673ffffffffffffffffffffffffffffffffffffffff1673ffffffffffffffffffffffffffffffffffffffff1681526020016002820180548060200260200160405190810160405280929190818152602001828054801561042357602002820191906000526020600020905b81548152602001906001019080831161040f575b5050505050815260200160038201548152602001600482015481526020016005820160009054906101000a900460ff16151515158152505081526020019060010190610350565b50505050905090565b600061047d61066a565b9050600061048c8285856106ea565b90506000811415156104e0573373ffffffffffffffffffffffffffffffffffffffff166108fc829081150290604051600060405180830381858888f193505050501580156104de573d6000803e3d6000fd5b505b6104e8610ba3565b60c0604051908101604052804281526020013373ffffffffffffffffffffffffffffffffffffffff16815260200186815260200161052586610268565b8152602001848152602001600084141515158152509050600281908060018154018082558091505090600182039060005260206000209060060201600090919290919091506000820151816000015560208201518160010160006101000a81548173ffffffffffffffffffffffffffffffffffffffff021916908373ffffffffffffffffffffffffffffffffffffffff16021790555060408201518160020190805190602001906105d7929190610bf2565b50606082015181600301556080820151816004015560a08201518160050160006101000a81548160ff0219169083151502179055505050503373ffffffffffffffffffffffffffffffffffffffff167f573c250816ba4ae451e040d18622376323c4cfe81596d0194b34b3f4f13d0e5060008414158460405161065b92919061101a565b60405180910390a25050505050565b60008060246001430340600180549050604051602001808381526020018281526020019250505060405160208183030381529060405280519060200120600190048115156106b457fe5b06905060018190806001815401808255809150509060018203906000526020600020016000909192909190915055508091505090565b6000806000905060008090505b8451811015610b975785858281518110151561070f57fe5b9060200190602002015114801561073d57506025858281518110151561073157fe5b90602001906020020151105b15610766576024848281518110151561075257fe5b906020019060200201510282019150610b8a565b6025858281518110151561077657fe5b906020019060200201511480156107995750600060038781151561079657fe5b06145b156107c257600384828151811015156107ae57fe5b906020019060200201510282019150610b89565b602685828151811015156107d257fe5b906020019060200201511480156107f5575060026003878115156107f257fe5b06145b1561081e576003848281518110151561080a57fe5b906020019060200201510282019150610b88565b6027858281518110151561082e57fe5b906020019060200201511480156108515750600160038781151561084e57fe5b06145b1561087a576003848281518110151561086657fe5b906020019060200201510282019150610b87565b6028858281518110151561088a57fe5b906020019060200201511480156108a15750600086115b80156108ad5750600d86105b156108d657600384828151811015156108c257fe5b906020019060200201510282019150610b86565b602985828151811015156108e657fe5b906020019060200201511480156108fd5750600c86115b80156109095750601986105b15610932576003848281518110151561091e57fe5b906020019060200201510282019150610b85565b602a858281518110151561094257fe5b906020019060200201511480156109595750601886115b15610982576003848281518110151561096e57fe5b906020019060200201510282019150610b84565b602b858281518110151561099257fe5b906020019060200201511480156109a95750600086115b80156109b55750601386105b156109de57600284828151811015156109ca57fe5b906020019060200201510282019150610b83565b603085828151811015156109ee57fe5b90602001906020020151148015610a055750601286115b15610a2e5760028482815181101515610a1a57fe5b906020019060200201510282019150610b82565b602c8582815181101515610a3e57fe5b90602001906020020151148015610a6157506000600287811515610a5e57fe5b06145b15610a8a5760028482815181101515610a7657fe5b906020019060200201510282019150610b81565b602f8582815181101515610a9a57fe5b90602001906020020151148015610abd57506001600287811515610aba57fe5b06145b15610ae65760028482815181101515610ad257fe5b906020019060200201510282019150610b80565b602d8582815181101515610af657fe5b90602001906020020151148015610b0b575060005b15610b345760028482815181101515610b2057fe5b906020019060200201510282019150610b7f565b602e8582815181101515610b4457fe5b90602001906020020151148015610b59575060005b15610b7e5760028482815181101515610b6e57fe5b9060200190602002015102820191505b5b5b5b5b5b5b5b5b5b5b5b5b80806001019150506106f7565b50809150509392505050565b60c06040519081016040528060008152602001600073ffffffffffffffffffffffffffffffffffffffff1681526020016060815260200160008152602001600081526020016000151581525090565b828054828255906000526020600020908101928215610c2e579160200282015b82811115610c2d578251825591602001919060010190610c12565b5b509050610c3b9190610c3f565b5090565b610c6191905b80821115610c5d576000816000905550600101610c45565b5090565b90565b600082601f8301121515610c7757600080fd5b8135610c8a610c85826110ab565b61107e565b91508181835260208401935060208101905083856020840282011115610caf57600080fd5b60005b83811015610cdf5781610cc58882610ce9565b845260208401935060208301925050600181019050610cb2565b5050505092915050565b6000610cf5823561118a565b905092915050565b600060208284031215610d0f57600080fd5b600082013567ffffffffffffffff811115610d2957600080fd5b610d3584828501610c64565b91505092915050565b60008060408385031215610d5157600080fd5b600083013567ffffffffffffffff811115610d6b57600080fd5b610d7785828601610c64565b925050602083013567ffffffffffffffff811115610d9457600080fd5b610da085828601610c64565b9150509250929050565b610db381611142565b82525050565b6000610dc4826110fa565b80845260208401935083602082028501610ddd856110d3565b60005b84811015610e16578383038852610df8838351610f23565b9250610e038261111b565b9150602088019750600181019050610de0565b508196508694505050505092915050565b6000610e3282611110565b808452602084019350610e44836110ed565b60005b82811015610e7657610e5a868351610fac565b610e6382611135565b9150602086019550600181019050610e47565b50849250505092915050565b6000610e8d82611105565b808452602084019350610e9f836110e0565b60005b82811015610ed157610eb5868351610fac565b610ebe82611128565b9150602086019550600181019050610ea2565b50849250505092915050565b610ee681611154565b82525050565b6000601c82527f4f6e6c79204f776e65722063616e2073656520746869732066756e63000000006020830152604082019050919050565b600060c083016000830151610f3b6000860182610fac565b506020830151610f4e6020860182610daa565b5060408301518482036040860152610f668282610e82565b9150506060830151610f7b6060860182610fac565b506080830151610f8e6080860182610fac565b5060a0830151610fa160a0860182610edd565b508091505092915050565b610fb581611180565b82525050565b6000602082019050610fd06000830184610daa565b92915050565b60006020820190508181036000830152610ff08184610db9565b905092915050565b600060208201905081810360008301526110128184610e27565b905092915050565b600060408201905061102f6000830185610edd565b61103c6020830184610fac565b9392505050565b6000602082019050818103600083015261105c81610eec565b9050919050565b60006020820190506110786000830184610fac565b92915050565b6000604051905081810181811067ffffffffffffffff821117156110a157600080fd5b8060405250919050565b600067ffffffffffffffff8211156110c257600080fd5b602082029050602081019050919050565b6000602082019050919050565b6000602082019050919050565b6000602082019050919050565b600081519050919050565b600081519050919050565b600081519050919050565b6000602082019050919050565b6000602082019050919050565b6000602082019050919050565b600061114d82611160565b9050919050565b60008115159050919050565b600073ffffffffffffffffffffffffffffffffffffffff82169050919050565b6000819050919050565b600081905091905056fea265627a7a723058208214ae21999c0cf63bffdeb97f6895317439dfcb4f51e18d932fddd103c13a386c6578706572696d656e74616cf50037",
  "source": "pragma solidity ^0.5.0;\r\npragma experimental ABIEncoderV2;\r\n\r\ncontract CryptoRoulette {\r\n    struct Spin {\r\n        uint time;\r\n        address better;\r\n        uint[] selectedItemID;\r\n        uint totalFundsPlaced;\r\n        uint selectedNumber;\r\n        bool isWinningSpin;\r\n    }\r\n\r\n    address private _contractOwner;\r\n    function getContractOwner() public view returns (address) {\r\n        return _contractOwner;\r\n    }\r\n\r\n    uint[] private _lastSpinResults;\r\n    function getSpinResults() public view returns (uint[] memory) {\r\n        return _lastSpinResults;\r\n    }\r\n\r\n    Spin[] private _lastSpins;\r\n    function getLastSpins() public view returns (Spin[] memory){\r\n        return _lastSpins;\r\n    }\r\n\r\n    constructor() public payable {\r\n        _contractOwner = msg.sender;\r\n    }\r\n\r\n    event SpinResultEvent (\r\n        address indexed sender,\r\n        bool won,\r\n        uint256 amountWon\r\n    );\r\n\r\n    function placeBet(uint[] memory betIDs, uint[] memory bets) public payable {\r\n        uint selectedNumber = wheelSpin();\r\n        uint payoutAmount = calculatePayout(selectedNumber, betIDs, bets);\r\n        if(payoutAmount != 0) {\r\n            // transfers funds to winner\r\n            msg.sender.transfer(payoutAmount);\r\n        }\r\n        Spin memory newSpin = Spin({\r\n            time: now,\r\n            better: msg.sender,\r\n            selectedItemID: betIDs,\r\n            totalFundsPlaced: sumArray(bets),\r\n            selectedNumber: selectedNumber,\r\n            isWinningSpin: payoutAmount != 0\r\n        });\r\n        _lastSpins.push(newSpin);\r\n        emit SpinResultEvent(msg.sender, payoutAmount != 0, payoutAmount);\r\n    }\r\n\r\n    function wheelSpin() public returns (uint) {\r\n        // actually this function just generates random number\r\n        uint _randomNumber = (uint(keccak256(abi.encodePacked(blockhash(block.number - 1), _lastSpinResults.length)))) % 36;\r\n        _lastSpinResults.push(_randomNumber);\r\n        return _randomNumber;\r\n    }\r\n\r\n    function sumArray(uint[] memory arrayToSum) public pure returns (uint _sum) {\r\n        _sum = 0;\r\n        for (uint i = 0; i < arrayToSum.length; i++) {\r\n            _sum += arrayToSum[i];\r\n        }\r\n    }\r\n\r\n    modifier onlyOwner() {\r\n        // Ensure the participant awarding the ether is the manager\r\n        require(\r\n            msg.sender == _contractOwner,\r\n            \"Only Owner can see this func\"\r\n        );\r\n        _;\r\n    }\r\n\r\n    function getBalance() public onlyOwner view returns(uint){\r\n        // returns current balance of smart contract, notice this function is restricted to only contract owner\r\n        return address(this).balance;\r\n    }\r\n\r\n    modifier minBet() {\r\n        // minimum amount ether required for player to place bet\r\n        require(msg.value == .01 ether, \"Minimal ether required\");\r\n        _;\r\n    }\r\n\r\n    function calculatePayout(uint spinResult, uint[] memory placedBetsID, uint[] memory bets)  private pure returns (uint) {\r\n        // this function check whether array contains number, ie. if spinResult is among placed bets from user\r\n        uint payout = 0;\r\n        for(uint i = 0; i < placedBetsID.length; i++) {\r\n            if(placedBetsID[i] == spinResult && placedBetsID[i] < 37) {\r\n                payout += bets[i] * 36;\r\n            }\r\n            // rows 2to1\r\n            else if(placedBetsID[i] == 37 && spinResult % 3 == 0){\r\n                payout += bets[i] * 3;\r\n            }\r\n            else if(placedBetsID[i] == 38 && spinResult % 3 == 2) {\r\n                payout += bets[i] * 3;\r\n            }\r\n            else if(placedBetsID[i] == 39 && spinResult % 3 == 1)  {\r\n                payout += bets[i] * 3;\r\n            }\r\n            // cols => dozens\r\n            else if(placedBetsID[i] == 40 && spinResult > 0 && spinResult < 13) {\r\n                payout += bets[i] * 3;\r\n            }\r\n            else if(placedBetsID[i] == 41 && spinResult > 12 && spinResult < 25) {\r\n                payout += bets[i] * 3;\r\n            }\r\n            else if(placedBetsID[i] == 42 && spinResult > 24) {\r\n                payout += bets[i] * 3;\r\n            }\r\n            // low or high numbers\r\n            else if(placedBetsID[i] == 43 && spinResult > 0 && spinResult < 19) {\r\n                payout += bets[i] * 2;\r\n            }\r\n            else if(placedBetsID[i] == 48 && spinResult > 18) {\r\n                payout += bets[i] * 2;\r\n            }\r\n            // odd or even numbers\r\n            else if(placedBetsID[i] == 44 && spinResult % 2 == 0) {\r\n               payout += bets[i] * 2;\r\n            }\r\n            else if(placedBetsID[i] == 47 && spinResult % 2 == 1) {\r\n                payout += bets[i] * 2;\r\n            }\r\n            // red\r\n            else if(placedBetsID[i] == 45 && false) {\r\n                payout += bets[i] * 2;\r\n            }\r\n            // black\r\n            else if(placedBetsID[i] == 46 && false) {\r\n                payout += bets[i] * 2;\r\n            }\r\n        }\r\n        return payout;\r\n    }\r\n}",
  "sourcePath": "C:/Users/sena/Documents/PmfSmartContracts/app/contracts/CryptoRoulette.sol",
  "compiler": {
    "name": "solc",
    "version": "0.5.0+commit.1d4f565a.Emscripten.clang"
  },
  "schemaVersion": "3.0.8",
  "updatedAt": "2019-07-02T18:36:14.345Z",
  "devdoc": {
    "methods": {}
  },
  "userdoc": {
    "methods": {}
  }
}