{
  "contractName": "CryptoRoulette",
  "abi": [
    {
      "inputs": [],
      "payable": true,
      "stateMutability": "payable",
      "type": "constructor",
      "signature": "constructor"
    },
    {
      "constant": true,
      "inputs": [],
      "name": "getContractOwner",
      "outputs": [
        {
          "name": "",
          "type": "address"
        }
      ],
      "payable": false,
      "stateMutability": "view",
      "type": "function",
      "signature": "0x442890d5"
    },
    {
      "constant": true,
      "inputs": [],
      "name": "getSpinResults",
      "outputs": [
        {
          "name": "",
          "type": "uint256[]"
        }
      ],
      "payable": false,
      "stateMutability": "view",
      "type": "function",
      "signature": "0x47fd50bb"
    },
    {
      "constant": true,
      "inputs": [],
      "name": "getLastSpins",
      "outputs": [
        {
          "components": [
            {
              "name": "time",
              "type": "uint256"
            },
            {
              "name": "better",
              "type": "address"
            },
            {
              "name": "selectedItemID",
              "type": "uint256[]"
            },
            {
              "name": "totalFundsPlaced",
              "type": "uint256"
            },
            {
              "name": "selectedNumber",
              "type": "uint256"
            },
            {
              "name": "isWinningSpin",
              "type": "bool"
            }
          ],
          "name": "",
          "type": "tuple[]"
        }
      ],
      "payable": false,
      "stateMutability": "view",
      "type": "function",
      "signature": "0x8eb1807d"
    },
    {
      "constant": false,
      "inputs": [
        {
          "name": "betIDs",
          "type": "uint256[]"
        },
        {
          "name": "bets",
          "type": "uint256[]"
        }
      ],
      "name": "placeBet",
      "outputs": [
        {
          "components": [
            {
              "name": "time",
              "type": "uint256"
            },
            {
              "name": "better",
              "type": "address"
            },
            {
              "name": "selectedItemID",
              "type": "uint256[]"
            },
            {
              "name": "totalFundsPlaced",
              "type": "uint256"
            },
            {
              "name": "selectedNumber",
              "type": "uint256"
            },
            {
              "name": "isWinningSpin",
              "type": "bool"
            }
          ],
          "name": "",
          "type": "tuple"
        }
      ],
      "payable": true,
      "stateMutability": "payable",
      "type": "function",
      "signature": "0xbdd60e92"
    },
    {
      "constant": false,
      "inputs": [],
      "name": "wheelSpin",
      "outputs": [
        {
          "name": "",
          "type": "uint256"
        }
      ],
      "payable": false,
      "stateMutability": "nonpayable",
      "type": "function",
      "signature": "0xef227ec2"
    },
    {
      "constant": true,
      "inputs": [],
      "name": "getBalance",
      "outputs": [
        {
          "name": "",
          "type": "uint256"
        }
      ],
      "payable": false,
      "stateMutability": "view",
      "type": "function",
      "signature": "0x12065fe0"
    }
  ],
  "bytecode": "0x6080604052336000806101000a81548173ffffffffffffffffffffffffffffffffffffffff021916908373ffffffffffffffffffffffffffffffffffffffff160217905550610d4e806100536000396000f3fe608060405260043610610078576000357c0100000000000000000000000000000000000000000000000000000000900463ffffffff16806312065fe01461007d578063442890d5146100a857806347fd50bb146100d35780638eb1807d146100fe578063bdd60e9214610129578063ef227ec214610159575b600080fd5b34801561008957600080fd5b50610092610184565b60405161009f9190610be3565b60405180910390f35b3480156100b457600080fd5b506100bd610234565b6040516100ca9190610b42565b60405180910390f35b3480156100df57600080fd5b506100e861025d565b6040516100f59190610b7f565b60405180910390f35b34801561010a57600080fd5b506101136102b5565b6040516101209190610b5d565b60405180910390f35b610143600480360361013e919081019061083c565b6103fc565b6040516101509190610bc1565b60405180910390f35b34801561016557600080fd5b5061016e6105ac565b60405161017b9190610be3565b60405180910390f35b60008060009054906101000a900473ffffffffffffffffffffffffffffffffffffffff1673ffffffffffffffffffffffffffffffffffffffff163373ffffffffffffffffffffffffffffffffffffffff16141515610217576040517f08c379a000000000000000000000000000000000000000000000000000000000815260040161020e90610ba1565b60405180910390fd5b3073ffffffffffffffffffffffffffffffffffffffff1631905090565b60008060009054906101000a900473ffffffffffffffffffffffffffffffffffffffff16905090565b606060018054806020026020016040519081016040528092919081815260200182805480156102ab57602002820191906000526020600020905b815481526020019060010190808311610297575b5050505050905090565b60606002805480602002602001604051908101604052809291908181526020016000905b828210156103f3578382906000526020600020906006020160c06040519081016040529081600082015481526020016001820160009054906101000a900473ffffffffffffffffffffffffffffffffffffffff1673ffffffffffffffffffffffffffffffffffffffff1673ffffffffffffffffffffffffffffffffffffffff168152602001600282018054806020026020016040519081016040528092919081815260200182805480156103ac57602002820191906000526020600020905b815481526020019060010190808311610398575b5050505050815260200160038201548152602001600482015481526020016005820160009054906101000a900460ff161515151581525050815260200190600101906102d9565b50505050905090565b6104046106e2565b600061040e6105ac565b9050600061041c8286610634565b90508015610475573373ffffffffffffffffffffffffffffffffffffffff166108fc6104488685610687565b9081150290604051600060405180830381858888f19350505050158015610473573d6000803e3d6000fd5b505b61047d6106e2565b60c0604051908101604052804281526020013373ffffffffffffffffffffffffffffffffffffffff1681526020018781526020016104ba8761069f565b81526020018481526020018315158152509050600281908060018154018082558091505090600182039060005260206000209060060201600090919290919091506000820151816000015560208201518160010160006101000a81548173ffffffffffffffffffffffffffffffffffffffff021916908373ffffffffffffffffffffffffffffffffffffffff1602179055506040820151816002019080519060200190610568929190610731565b50606082015181600301556080820151816004015560a08201518160050160006101000a81548160ff02191690831515021790555050505080935050505092915050565b600080602460014303406001805490504260405160200180848152602001838152602001828152602001935050505060405160208183030381529060405280519060200120600190048115156105fe57fe5b06905060018190806001815401808255809150509060018203906000526020600020016000909192909190915055508091505090565b600080600090505b825181101561067b5783838281518110151561065457fe5b90602001906020020151141561066e576001915050610681565b808060010191505061063c565b50600090505b92915050565b600080670de0b6b3a764000090508091505092915050565b600080905060008090505b82518110156106dc5782818151811015156106c157fe5b906020019060200201518201915080806001019150506106aa565b50919050565b60c06040519081016040528060008152602001600073ffffffffffffffffffffffffffffffffffffffff1681526020016060815260200160008152602001600081526020016000151581525090565b82805482825590600052602060002090810192821561076d579160200282015b8281111561076c578251825591602001919060010190610751565b5b50905061077a919061077e565b5090565b6107a091905b8082111561079c576000816000905550600101610784565b5090565b90565b600082601f83011215156107b657600080fd5b81356107c96107c482610c2b565b610bfe565b915081818352602084019350602081019050838560208402820111156107ee57600080fd5b60005b8381101561081e57816108048882610828565b8452602084019350602083019250506001810190506107f1565b5050505092915050565b60006108348235610d0a565b905092915050565b6000806040838503121561084f57600080fd5b600083013567ffffffffffffffff81111561086957600080fd5b610875858286016107a3565b925050602083013567ffffffffffffffff81111561089257600080fd5b61089e858286016107a3565b9150509250929050565b6108b181610cc2565b82525050565b60006108c282610c7a565b808452602084019350836020820285016108db85610c53565b60005b848110156109145783830388526108f6838351610aaa565b925061090182610c9b565b91506020880197506001810190506108de565b508196508694505050505092915050565b600061093082610c90565b80845260208401935061094283610c6d565b60005b8281101561097457610958868351610b33565b61096182610cb5565b9150602086019550600181019050610945565b50849250505092915050565b600061098b82610c85565b80845260208401935061099d83610c60565b60005b828110156109cf576109b3868351610b33565b6109bc82610ca8565b91506020860195506001810190506109a0565b50849250505092915050565b6109e481610cd4565b82525050565b6000601c82527f4f6e6c79204f776e65722063616e2073656520746869732066756e63000000006020830152604082019050919050565b600060c083016000830151610a396000860182610b33565b506020830151610a4c60208601826108a8565b5060408301518482036040860152610a648282610980565b9150506060830151610a796060860182610b33565b506080830151610a8c6080860182610b33565b5060a0830151610a9f60a08601826109db565b508091505092915050565b600060c083016000830151610ac26000860182610b33565b506020830151610ad560208601826108a8565b5060408301518482036040860152610aed8282610980565b9150506060830151610b026060860182610b33565b506080830151610b156080860182610b33565b5060a0830151610b2860a08601826109db565b508091505092915050565b610b3c81610d00565b82525050565b6000602082019050610b5760008301846108a8565b92915050565b60006020820190508181036000830152610b7781846108b7565b905092915050565b60006020820190508181036000830152610b998184610925565b905092915050565b60006020820190508181036000830152610bba816109ea565b9050919050565b60006020820190508181036000830152610bdb8184610a21565b905092915050565b6000602082019050610bf86000830184610b33565b92915050565b6000604051905081810181811067ffffffffffffffff82111715610c2157600080fd5b8060405250919050565b600067ffffffffffffffff821115610c4257600080fd5b602082029050602081019050919050565b6000602082019050919050565b6000602082019050919050565b6000602082019050919050565b600081519050919050565b600081519050919050565b600081519050919050565b6000602082019050919050565b6000602082019050919050565b6000602082019050919050565b6000610ccd82610ce0565b9050919050565b60008115159050919050565b600073ffffffffffffffffffffffffffffffffffffffff82169050919050565b6000819050919050565b600081905091905056fea265627a7a7230582098d997178c00967add527add22fe125350e7377dfce6e6a9933819182c1abdd06c6578706572696d656e74616cf50037",
  "source": "pragma solidity ^0.5.0;\r\npragma experimental ABIEncoderV2;\r\n\r\ncontract CryptoRoulette {\r\n    struct Spin {\r\n        uint time;\r\n        address better;\r\n        uint[] selectedItemID;\r\n        uint totalFundsPlaced;\r\n        uint selectedNumber;\r\n        bool isWinningSpin;\r\n    }\r\n\r\n    address private _contractOwner;\r\n    function getContractOwner() public view returns (address) {\r\n        return _contractOwner;\r\n    }\r\n\r\n    uint[] private _lastSpinResults;\r\n    function getSpinResults() public view returns (uint[] memory) {\r\n        return _lastSpinResults;\r\n    }\r\n\r\n    Spin[] private _lastSpins;\r\n    function getLastSpins() public view returns (Spin[] memory){\r\n        return _lastSpins;\r\n    }\r\n\r\n    constructor() public payable {\r\n        _contractOwner = msg.sender;\r\n    }\r\n\r\n    function placeBet(uint[] memory betIDs, uint[] memory bets) public payable returns (Spin memory) {\r\n        uint selectedNumber = wheelSpin();\r\n        bool isWinningSpin = isWinner(selectedNumber, betIDs);\r\n        if(isWinningSpin) {\r\n            // transfers funds to winner\r\n            msg.sender.transfer(calculateWinAmount(bets, selectedNumber));\r\n        }\r\n        Spin memory newSpin = Spin({\r\n            time: now,\r\n            better: msg.sender,\r\n            selectedItemID: betIDs,\r\n            totalFundsPlaced: sumArray(bets),\r\n            selectedNumber: selectedNumber,\r\n            isWinningSpin: isWinningSpin\r\n        });\r\n        _lastSpins.push(newSpin);\r\n        return newSpin;\r\n    }\r\n\r\n    function wheelSpin() public returns (uint) {\r\n        // actually this function just generates random number\r\n        uint _randomNumber = (uint(keccak256(abi.encodePacked(blockhash(block.number - 1), _lastSpinResults.length, block.timestamp)))) % 36;\r\n        _lastSpinResults.push(_randomNumber);\r\n        return _randomNumber;\r\n    }\r\n\r\n    function isWinner(uint spinResult, uint[] memory placedBetsID)  private pure returns (bool) {\r\n        // this function check whether array contains number, ie. if spinResult is among placed bets from user\r\n        for(uint i = 0; i < placedBetsID.length; i++) {\r\n            if(placedBetsID[i] == spinResult) {\r\n                return true;\r\n            }\r\n        }\r\n        return false;\r\n    }\r\n\r\n    function calculateWinAmount(uint[] memory placedBets, uint selectedNumber) private pure returns(uint) {\r\n        // function calculates total win amount that contract needs to send to user who won the bet\r\n        // TODO:\r\n        uint _win = 1000000000000000000;\r\n        return _win;\r\n    }\r\n\r\n    function sumArray(uint[] memory placedBets) private pure returns (uint _sum) {\r\n        _sum = 0;\r\n        for (uint i = 0; i < placedBets.length; i++) {\r\n            _sum += placedBets[i];\r\n        }\r\n    }\r\n\r\n    modifier onlyOwner() {\r\n        // Ensure the participant awarding the ether is the manager\r\n        require(\r\n            msg.sender == _contractOwner,\r\n            \"Only Owner can see this func\"\r\n        );\r\n        _;\r\n    }\r\n\r\n    function getBalance() public onlyOwner view returns(uint){\r\n        // returns current balance of smart contract, notice this function is restricted to only contract owner\r\n        return address(this).balance;\r\n    }\r\n\r\n    modifier minBet() {\r\n        // minimum amount ether required for player to place bet\r\n        require(msg.value == .01 ether, \"Minimal ether required\");\r\n        _;\r\n    }\r\n}",
  "sourcePath": "C:/Users/sena/Documents/PmfSmartContracts/app/contracts/CryptoRoulette.sol",
  "compiler": {
    "name": "solc",
    "version": "0.5.0+commit.1d4f565a.Emscripten.clang"
  },
  "schemaVersion": "3.0.8",
  "updatedAt": "2019-05-07T12:37:17.294Z",
  "devdoc": {
    "methods": {}
  },
  "userdoc": {
    "methods": {}
  }
}