{
  "contractName": "CryptoRoulette",
  "abi": [
    {
      "inputs": [],
      "payable": true,
      "stateMutability": "payable",
      "type": "constructor",
      "signature": "constructor"
    },
    {
      "constant": true,
      "inputs": [],
      "name": "getSpinResults",
      "outputs": [
        {
          "name": "",
          "type": "uint256[]"
        }
      ],
      "payable": false,
      "stateMutability": "view",
      "type": "function",
      "signature": "0x47fd50bb"
    },
    {
      "constant": true,
      "inputs": [],
      "name": "getLastSpins",
      "outputs": [
        {
          "components": [
            {
              "name": "_better",
              "type": "address"
            },
            {
              "name": "_selectedItemID",
              "type": "uint256[]"
            },
            {
              "name": "_totalFundsPlaced",
              "type": "uint256"
            },
            {
              "name": "_winingNumber",
              "type": "uint256"
            }
          ],
          "name": "",
          "type": "tuple[]"
        }
      ],
      "payable": false,
      "stateMutability": "view",
      "type": "function",
      "signature": "0x8eb1807d"
    },
    {
      "constant": false,
      "inputs": [
        {
          "name": "betIDs",
          "type": "uint256[]"
        },
        {
          "name": "bets",
          "type": "uint256[]"
        }
      ],
      "name": "placeBet",
      "outputs": [
        {
          "name": "",
          "type": "uint256"
        }
      ],
      "payable": true,
      "stateMutability": "payable",
      "type": "function",
      "signature": "0xbdd60e92"
    },
    {
      "constant": false,
      "inputs": [],
      "name": "wheelSpin",
      "outputs": [
        {
          "name": "",
          "type": "uint256"
        }
      ],
      "payable": false,
      "stateMutability": "nonpayable",
      "type": "function",
      "signature": "0xef227ec2"
    }
  ],
  "bytecode": "0x6080604052336000806101000a81548173ffffffffffffffffffffffffffffffffffffffff021916908373ffffffffffffffffffffffffffffffffffffffff160217905550346001819055506109f48061005a6000396000f3fe608060405260043610610062576000357c0100000000000000000000000000000000000000000000000000000000900463ffffffff16806347fd50bb146100675780638eb1807d14610092578063bdd60e92146100bd578063ef227ec2146100ed575b600080fd5b34801561007357600080fd5b5061007c610118565b6040516100899190610873565b60405180910390f35b34801561009e57600080fd5b506100a7610170565b6040516100b49190610851565b60405180910390f35b6100d760048036036100d29190810190610640565b610292565b6040516100e49190610895565b60405180910390f35b3480156100f957600080fd5b506101026103d8565b60405161010f9190610895565b60405180910390f35b6060600280548060200260200160405190810160405280929190818152602001828054801561016657602002820191906000526020600020905b815481526020019060010190808311610152575b5050505050905090565b60606003805480602002602001604051908101604052809291908181526020016000905b828210156102895783829060005260206000209060040201608060405190810160405290816000820160009054906101000a900473ffffffffffffffffffffffffffffffffffffffff1673ffffffffffffffffffffffffffffffffffffffff1673ffffffffffffffffffffffffffffffffffffffff1681526020016001820180548060200260200160405190810160405280929190818152602001828054801561025d57602002820191906000526020600020905b815481526020019060010190808311610249575b505050505081526020016002820154815260200160038201548152505081526020019060010190610194565b50505050905090565b60008061029d6103d8565b9050600281908060018154018082558091505090600182039060005260206000200160009091929091909150555060006102d78286610460565b90506102e16104f6565b6080604051908101604052803373ffffffffffffffffffffffffffffffffffffffff168152602001878152602001610318876104b3565b81526020018481525090506003819080600181540180825580915050906001820390600052602060002090600402016000909192909190915060008201518160000160006101000a81548173ffffffffffffffffffffffffffffffffffffffff021916908373ffffffffffffffffffffffffffffffffffffffff16021790555060208201518160010190805190602001906103b4929190610535565b50604082015181600201556060820151816003015550505082935050505092915050565b6000806024600143034060028054905042604051602001808481526020018381526020018281526020019350505050604051602081830303815290604052805190602001206001900481151561042a57fe5b06905060028190806001815401808255809150509060018203906000526020600020016000909192909190915055508091505090565b600080600090505b82518110156104a75783838281518110151561048057fe5b90602001906020020151141561049a5760019150506104ad565b8080600101915050610468565b50600090505b92915050565b600080905060008090505b82518110156104f05782818151811015156104d557fe5b906020019060200201518201915080806001019150506104be565b50919050565b608060405190810160405280600073ffffffffffffffffffffffffffffffffffffffff1681526020016060815260200160008152602001600081525090565b828054828255906000526020600020908101928215610571579160200282015b82811115610570578251825591602001919060010190610555565b5b50905061057e9190610582565b5090565b6105a491905b808211156105a0576000816000905550600101610588565b5090565b90565b600082601f83011215156105ba57600080fd5b81356105cd6105c8826108dd565b6108b0565b915081818352602084019350602081019050838560208402820111156105f257600080fd5b60005b838110156106225781610608888261062c565b8452602084019350602083019250506001810190506105f5565b5050505092915050565b600061063882356109b0565b905092915050565b6000806040838503121561065357600080fd5b600083013567ffffffffffffffff81111561066d57600080fd5b610679858286016105a7565b925050602083013567ffffffffffffffff81111561069657600080fd5b6106a2858286016105a7565b9150509250929050565b6106b581610974565b82525050565b60006106c68261092c565b808452602084019350836020820285016106df85610905565b60005b848110156107185783830388526106fa8383516107df565b92506107058261094d565b91506020880197506001810190506106e2565b508196508694505050505092915050565b600061073482610942565b8084526020840193506107468361091f565b60005b828110156107785761075c868351610842565b61076582610967565b9150602086019550600181019050610749565b50849250505092915050565b600061078f82610937565b8084526020840193506107a183610912565b60005b828110156107d3576107b7868351610842565b6107c08261095a565b91506020860195506001810190506107a4565b50849250505092915050565b60006080830160008301516107f760008601826106ac565b506020830151848203602086015261080f8282610784565b91505060408301516108246040860182610842565b5060608301516108376060860182610842565b508091505092915050565b61084b816109a6565b82525050565b6000602082019050818103600083015261086b81846106bb565b905092915050565b6000602082019050818103600083015261088d8184610729565b905092915050565b60006020820190506108aa6000830184610842565b92915050565b6000604051905081810181811067ffffffffffffffff821117156108d357600080fd5b8060405250919050565b600067ffffffffffffffff8211156108f457600080fd5b602082029050602081019050919050565b6000602082019050919050565b6000602082019050919050565b6000602082019050919050565b600081519050919050565b600081519050919050565b600081519050919050565b6000602082019050919050565b6000602082019050919050565b6000602082019050919050565b600061097f82610986565b9050919050565b600073ffffffffffffffffffffffffffffffffffffffff82169050919050565b6000819050919050565b600081905091905056fea265627a7a723058200a230068f17315256465db632ed0ae6fea4d2267698f51f5ec423999ea69f15f6c6578706572696d656e74616cf50037",
  "source": "pragma solidity ^0.5.0;\r\npragma experimental ABIEncoderV2;\r\n\r\ncontract CryptoRoulette {\r\n    struct Spin {\r\n        address _better;\r\n        uint[] _selectedItemID;\r\n        uint _totalFundsPlaced;\r\n        uint _winingNumber;\r\n    }\r\n\r\n    address private _contractOwner;\r\n    uint private _contractFunds;\r\n    \r\n    uint[] private _lastSpinResults;\r\n    function getSpinResults() public view returns (uint[] memory) {\r\n        return _lastSpinResults;\r\n    }\r\n\r\n    Spin[] private _lastSpins;\r\n    function getLastSpins() public view returns (Spin[] memory){\r\n        return _lastSpins;\r\n    }\r\n\r\n    constructor() public payable {\r\n        _contractOwner = msg.sender;\r\n        _contractFunds = msg.value;\r\n    }\r\n\r\n    function placeBet(uint[] memory betIDs, uint[] memory bets) public payable returns (uint) {\r\n        uint spinResult = wheelSpin();\r\n        _lastSpinResults.push(spinResult);\r\n        bool isWinningTicket = isWinner(spinResult, betIDs);\r\n        Spin memory newSpin = Spin({\r\n            _better: msg.sender,\r\n            _selectedItemID: betIDs,\r\n            _totalFundsPlaced: sumArray(bets), \r\n            _winingNumber: spinResult\r\n        });\r\n        _lastSpins.push(newSpin);\r\n        return spinResult;\r\n    }\r\n\r\n    function wheelSpin() public returns (uint) {\r\n        // actually this function just generates random number\r\n        uint _randomNumber = (uint(keccak256(abi.encodePacked(blockhash(block.number - 1), _lastSpinResults.length, now)))) % 36;\r\n        _lastSpinResults.push(_randomNumber);\r\n        return _randomNumber;\r\n    }\r\n\r\n    function isWinner(uint spinResult, uint[] memory placedBetsID)  private pure returns (bool) {\r\n        // this function check whether array contains number, ie. if spinResult is among placed bets from user\r\n        for(uint i = 0; i < placedBetsID.length; i++) {\r\n            if(placedBetsID[i] == spinResult) {\r\n                return true;\r\n            }\r\n        }\r\n        return false;\r\n    }\r\n\r\n    function sumArray(uint[] memory placedBets) private pure returns (uint _sum) {\r\n        _sum = 0;\r\n        for (uint i = 0; i < placedBets.length; i++) {\r\n            _sum += placedBets[i];\r\n        }\r\n    }\r\n\r\n    modifier restricted() {\r\n        // Ensure the participant awarding the ether is the manager\r\n        require(msg.sender == _contractOwner);\r\n        _;\r\n    }\r\n\r\n    modifier minBet() {\r\n        // minimum amount ether required for player to place bet\r\n        require(msg.value == .01 ether);\r\n        _;\r\n    }\r\n}",
  "sourcePath": "C:/Users/luka.senicic/Documents/PmfSmartContracts/smart/app/contracts/CryptoRoulette.sol",
  "compiler": {
    "name": "solc",
    "version": "0.5.0+commit.1d4f565a.Emscripten.clang"
  },
  "schemaVersion": "3.0.6",
  "updatedAt": "2019-05-02T10:35:21.526Z",
  "devdoc": {
    "methods": {}
  },
  "userdoc": {
    "methods": {}
  }
}