{
  "contractName": "CryptoRoulette",
  "abi": [
    {
      "inputs": [],
      "payable": true,
      "stateMutability": "payable",
      "type": "constructor",
      "signature": "constructor"
    },
    {
      "constant": true,
      "inputs": [],
      "name": "getContractOwner",
      "outputs": [
        {
          "name": "",
          "type": "address"
        }
      ],
      "payable": false,
      "stateMutability": "view",
      "type": "function",
      "signature": "0x442890d5"
    },
    {
      "constant": true,
      "inputs": [],
      "name": "getSpinResults",
      "outputs": [
        {
          "name": "",
          "type": "uint256[]"
        }
      ],
      "payable": false,
      "stateMutability": "view",
      "type": "function",
      "signature": "0x47fd50bb"
    },
    {
      "constant": true,
      "inputs": [],
      "name": "getLastSpins",
      "outputs": [
        {
          "components": [
            {
              "name": "time",
              "type": "uint256"
            },
            {
              "name": "better",
              "type": "address"
            },
            {
              "name": "selectedItemID",
              "type": "uint256[]"
            },
            {
              "name": "totalFundsPlaced",
              "type": "uint256"
            },
            {
              "name": "selectedNumber",
              "type": "uint256"
            },
            {
              "name": "isWinningSpin",
              "type": "bool"
            }
          ],
          "name": "",
          "type": "tuple[]"
        }
      ],
      "payable": false,
      "stateMutability": "view",
      "type": "function",
      "signature": "0x8eb1807d"
    },
    {
      "constant": false,
      "inputs": [
        {
          "name": "betIDs",
          "type": "uint256[]"
        },
        {
          "name": "bets",
          "type": "uint256[]"
        }
      ],
      "name": "placeBet",
      "outputs": [
        {
          "components": [
            {
              "name": "time",
              "type": "uint256"
            },
            {
              "name": "better",
              "type": "address"
            },
            {
              "name": "selectedItemID",
              "type": "uint256[]"
            },
            {
              "name": "totalFundsPlaced",
              "type": "uint256"
            },
            {
              "name": "selectedNumber",
              "type": "uint256"
            },
            {
              "name": "isWinningSpin",
              "type": "bool"
            }
          ],
          "name": "",
          "type": "tuple"
        }
      ],
      "payable": true,
      "stateMutability": "payable",
      "type": "function",
      "signature": "0xbdd60e92"
    },
    {
      "constant": false,
      "inputs": [],
      "name": "wheelSpin",
      "outputs": [
        {
          "name": "",
          "type": "uint256"
        }
      ],
      "payable": false,
      "stateMutability": "nonpayable",
      "type": "function",
      "signature": "0xef227ec2"
    },
    {
      "constant": true,
      "inputs": [],
      "name": "getBalance",
      "outputs": [
        {
          "name": "",
          "type": "uint256"
        }
      ],
      "payable": false,
      "stateMutability": "view",
      "type": "function",
      "signature": "0x12065fe0"
    }
  ],
  "bytecode": "0x6080604052336000806101000a81548173ffffffffffffffffffffffffffffffffffffffff021916908373ffffffffffffffffffffffffffffffffffffffff16021790555061119c806100536000396000f3fe608060405260043610610078576000357c0100000000000000000000000000000000000000000000000000000000900463ffffffff16806312065fe01461007d578063442890d5146100a857806347fd50bb146100d35780638eb1807d146100fe578063bdd60e9214610129578063ef227ec214610159575b600080fd5b34801561008957600080fd5b50610092610184565b60405161009f9190611031565b60405180910390f35b3480156100b457600080fd5b506100bd610234565b6040516100ca9190610f90565b60405180910390f35b3480156100df57600080fd5b506100e861025d565b6040516100f59190610fcd565b60405180910390f35b34801561010a57600080fd5b506101136102b5565b6040516101209190610fab565b60405180910390f35b610143600480360361013e9190810190610c8a565b6103fc565b604051610150919061100f565b60405180910390f35b34801561016557600080fd5b5061016e6105ac565b60405161017b9190611031565b60405180910390f35b60008060009054906101000a900473ffffffffffffffffffffffffffffffffffffffff1673ffffffffffffffffffffffffffffffffffffffff163373ffffffffffffffffffffffffffffffffffffffff16141515610217576040517f08c379a000000000000000000000000000000000000000000000000000000000815260040161020e90610fef565b60405180910390fd5b3073ffffffffffffffffffffffffffffffffffffffff1631905090565b60008060009054906101000a900473ffffffffffffffffffffffffffffffffffffffff16905090565b606060018054806020026020016040519081016040528092919081815260200182805480156102ab57602002820191906000526020600020905b815481526020019060010190808311610297575b5050505050905090565b60606002805480602002602001604051908101604052809291908181526020016000905b828210156103f3578382906000526020600020906006020160c06040519081016040529081600082015481526020016001820160009054906101000a900473ffffffffffffffffffffffffffffffffffffffff1673ffffffffffffffffffffffffffffffffffffffff1673ffffffffffffffffffffffffffffffffffffffff168152602001600282018054806020026020016040519081016040528092919081815260200182805480156103ac57602002820191906000526020600020905b815481526020019060010190808311610398575b5050505050815260200160038201548152602001600482015481526020016005820160009054906101000a900460ff161515151581525050815260200190600101906102d9565b50505050905090565b610404610b30565b600061040e6105ac565b9050600061041d828686610634565b9050600081141515610471573373ffffffffffffffffffffffffffffffffffffffff166108fc829081150290604051600060405180830381858888f1935050505015801561046f573d6000803e3d6000fd5b505b610479610b30565b60c0604051908101604052804281526020013373ffffffffffffffffffffffffffffffffffffffff1681526020018781526020016104b687610aed565b8152602001848152602001600084141515158152509050600281908060018154018082558091505090600182039060005260206000209060060201600090919290919091506000820151816000015560208201518160010160006101000a81548173ffffffffffffffffffffffffffffffffffffffff021916908373ffffffffffffffffffffffffffffffffffffffff1602179055506040820151816002019080519060200190610568929190610b7f565b50606082015181600301556080820151816004015560a08201518160050160006101000a81548160ff02191690831515021790555050505080935050505092915050565b600080602460014303406001805490504260405160200180848152602001838152602001828152602001935050505060405160208183030381529060405280519060200120600190048115156105fe57fe5b06905060018190806001815401808255809150509060018203906000526020600020016000909192909190915055508091505090565b6000806000905060008090505b8451811015610ae15785858281518110151561065957fe5b9060200190602002015114801561068757506025858281518110151561067b57fe5b90602001906020020151105b156106b0576024848281518110151561069c57fe5b906020019060200201510282019150610ad4565b602585828151811015156106c057fe5b906020019060200201511480156106e3575060006003878115156106e057fe5b06145b1561070c57600384828151811015156106f857fe5b906020019060200201510282019150610ad3565b6026858281518110151561071c57fe5b9060200190602002015114801561073f5750600260038781151561073c57fe5b06145b15610768576003848281518110151561075457fe5b906020019060200201510282019150610ad2565b6027858281518110151561077857fe5b9060200190602002015114801561079b5750600160038781151561079857fe5b06145b156107c457600384828151811015156107b057fe5b906020019060200201510282019150610ad1565b602885828151811015156107d457fe5b906020019060200201511480156107eb5750600086115b80156107f75750600d86105b15610820576003848281518110151561080c57fe5b906020019060200201510282019150610ad0565b6029858281518110151561083057fe5b906020019060200201511480156108475750600c86115b80156108535750601986105b1561087c576003848281518110151561086857fe5b906020019060200201510282019150610acf565b602a858281518110151561088c57fe5b906020019060200201511480156108a35750601886115b156108cc57600384828151811015156108b857fe5b906020019060200201510282019150610ace565b602b85828151811015156108dc57fe5b906020019060200201511480156108f35750600086115b80156108ff5750601386105b15610928576002848281518110151561091457fe5b906020019060200201510282019150610acd565b6030858281518110151561093857fe5b9060200190602002015114801561094f5750601286115b15610978576002848281518110151561096457fe5b906020019060200201510282019150610acc565b602c858281518110151561098857fe5b906020019060200201511480156109ab575060006002878115156109a857fe5b06145b156109d457600284828151811015156109c057fe5b906020019060200201510282019150610acb565b602f85828151811015156109e457fe5b90602001906020020151148015610a0757506001600287811515610a0457fe5b06145b15610a305760028482815181101515610a1c57fe5b906020019060200201510282019150610aca565b602d8582815181101515610a4057fe5b90602001906020020151148015610a55575060005b15610a7e5760028482815181101515610a6a57fe5b906020019060200201510282019150610ac9565b602e8582815181101515610a8e57fe5b90602001906020020151148015610aa3575060005b15610ac85760028482815181101515610ab857fe5b9060200190602002015102820191505b5b5b5b5b5b5b5b5b5b5b5b5b8080600101915050610641565b50809150509392505050565b600080905060008090505b8251811015610b2a578281815181101515610b0f57fe5b90602001906020020151820191508080600101915050610af8565b50919050565b60c06040519081016040528060008152602001600073ffffffffffffffffffffffffffffffffffffffff1681526020016060815260200160008152602001600081526020016000151581525090565b828054828255906000526020600020908101928215610bbb579160200282015b82811115610bba578251825591602001919060010190610b9f565b5b509050610bc89190610bcc565b5090565b610bee91905b80821115610bea576000816000905550600101610bd2565b5090565b90565b600082601f8301121515610c0457600080fd5b8135610c17610c1282611079565b61104c565b91508181835260208401935060208101905083856020840282011115610c3c57600080fd5b60005b83811015610c6c5781610c528882610c76565b845260208401935060208301925050600181019050610c3f565b5050505092915050565b6000610c828235611158565b905092915050565b60008060408385031215610c9d57600080fd5b600083013567ffffffffffffffff811115610cb757600080fd5b610cc385828601610bf1565b925050602083013567ffffffffffffffff811115610ce057600080fd5b610cec85828601610bf1565b9150509250929050565b610cff81611110565b82525050565b6000610d10826110c8565b80845260208401935083602082028501610d29856110a1565b60005b84811015610d62578383038852610d44838351610ef8565b9250610d4f826110e9565b9150602088019750600181019050610d2c565b508196508694505050505092915050565b6000610d7e826110de565b808452602084019350610d90836110bb565b60005b82811015610dc257610da6868351610f81565b610daf82611103565b9150602086019550600181019050610d93565b50849250505092915050565b6000610dd9826110d3565b808452602084019350610deb836110ae565b60005b82811015610e1d57610e01868351610f81565b610e0a826110f6565b9150602086019550600181019050610dee565b50849250505092915050565b610e3281611122565b82525050565b6000601c82527f4f6e6c79204f776e65722063616e2073656520746869732066756e63000000006020830152604082019050919050565b600060c083016000830151610e876000860182610f81565b506020830151610e9a6020860182610cf6565b5060408301518482036040860152610eb28282610dce565b9150506060830151610ec76060860182610f81565b506080830151610eda6080860182610f81565b5060a0830151610eed60a0860182610e29565b508091505092915050565b600060c083016000830151610f106000860182610f81565b506020830151610f236020860182610cf6565b5060408301518482036040860152610f3b8282610dce565b9150506060830151610f506060860182610f81565b506080830151610f636080860182610f81565b5060a0830151610f7660a0860182610e29565b508091505092915050565b610f8a8161114e565b82525050565b6000602082019050610fa56000830184610cf6565b92915050565b60006020820190508181036000830152610fc58184610d05565b905092915050565b60006020820190508181036000830152610fe78184610d73565b905092915050565b6000602082019050818103600083015261100881610e38565b9050919050565b600060208201905081810360008301526110298184610e6f565b905092915050565b60006020820190506110466000830184610f81565b92915050565b6000604051905081810181811067ffffffffffffffff8211171561106f57600080fd5b8060405250919050565b600067ffffffffffffffff82111561109057600080fd5b602082029050602081019050919050565b6000602082019050919050565b6000602082019050919050565b6000602082019050919050565b600081519050919050565b600081519050919050565b600081519050919050565b6000602082019050919050565b6000602082019050919050565b6000602082019050919050565b600061111b8261112e565b9050919050565b60008115159050919050565b600073ffffffffffffffffffffffffffffffffffffffff82169050919050565b6000819050919050565b600081905091905056fea265627a7a72305820b479b09f57f45721a7a364d7083a3e7fe233b0e81840e56304653e971eb18fa46c6578706572696d656e74616cf50037",
  "source": "pragma solidity ^0.5.0;\r\npragma experimental ABIEncoderV2;\r\n\r\ncontract CryptoRoulette {\r\n    struct Spin {\r\n        uint time;\r\n        address better;\r\n        uint[] selectedItemID;\r\n        uint totalFundsPlaced;\r\n        uint selectedNumber;\r\n        bool isWinningSpin;\r\n    }\r\n\r\n    address private _contractOwner;\r\n    function getContractOwner() public view returns (address) {\r\n        return _contractOwner;\r\n    }\r\n\r\n    uint[] private _lastSpinResults;\r\n    function getSpinResults() public view returns (uint[] memory) {\r\n        return _lastSpinResults;\r\n    }\r\n\r\n    Spin[] private _lastSpins;\r\n    function getLastSpins() public view returns (Spin[] memory){\r\n        return _lastSpins;\r\n    }\r\n\r\n    constructor() public payable {\r\n        _contractOwner = msg.sender;\r\n    }\r\n\r\n    function placeBet(uint[] memory betIDs, uint[] memory bets) public payable returns (Spin memory) {\r\n        uint selectedNumber = wheelSpin();\r\n        uint payoutAmount = calculatePayout(selectedNumber, betIDs, bets);\r\n        if(payoutAmount != 0) {\r\n            // transfers funds to winner\r\n            msg.sender.transfer(payoutAmount);\r\n        }\r\n        Spin memory newSpin = Spin({\r\n            time: now,\r\n            better: msg.sender,\r\n            selectedItemID: betIDs,\r\n            totalFundsPlaced: sumArray(bets),\r\n            selectedNumber: selectedNumber,\r\n            isWinningSpin: payoutAmount != 0\r\n        });\r\n        _lastSpins.push(newSpin);\r\n        return newSpin;\r\n    }\r\n\r\n    function wheelSpin() public returns (uint) {\r\n        // actually this function just generates random number\r\n        uint _randomNumber = (uint(keccak256(abi.encodePacked(blockhash(block.number - 1), _lastSpinResults.length, block.timestamp)))) % 36;\r\n        _lastSpinResults.push(_randomNumber);\r\n        return _randomNumber;\r\n    }\r\n\r\n    function sumArray(uint[] memory placedBets) private pure returns (uint _sum) {\r\n        _sum = 0;\r\n        for (uint i = 0; i < placedBets.length; i++) {\r\n            _sum += placedBets[i];\r\n        }\r\n    }\r\n\r\n    modifier onlyOwner() {\r\n        // Ensure the participant awarding the ether is the manager\r\n        require(\r\n            msg.sender == _contractOwner,\r\n            \"Only Owner can see this func\"\r\n        );\r\n        _;\r\n    }\r\n\r\n    function getBalance() public onlyOwner view returns(uint){\r\n        // returns current balance of smart contract, notice this function is restricted to only contract owner\r\n        return address(this).balance;\r\n    }\r\n\r\n    modifier minBet() {\r\n        // minimum amount ether required for player to place bet\r\n        require(msg.value == .01 ether, \"Minimal ether required\");\r\n        _;\r\n    }\r\n\r\n    function calculatePayout(uint spinResult, uint[] memory placedBetsID, uint[] memory bets)  private pure returns (uint) {\r\n        // this function check whether array contains number, ie. if spinResult is among placed bets from user\r\n        uint payout = 0;\r\n        for(uint i = 0; i < placedBetsID.length; i++) {\r\n            if(placedBetsID[i] == spinResult && placedBetsID[i] < 37) {\r\n                payout += bets[i] * 36;\r\n            }\r\n            // rows 2to1\r\n            else if(placedBetsID[i] == 37 && spinResult % 3 == 0){\r\n                payout += bets[i] * 3;\r\n            }\r\n            else if(placedBetsID[i] == 38 && spinResult % 3 == 2) {\r\n                payout += bets[i] * 3;\r\n            }\r\n            else if(placedBetsID[i] == 39 && spinResult % 3 == 1)  {\r\n                payout += bets[i] * 3;\r\n            }\r\n            // cols => dozens\r\n            else if(placedBetsID[i] == 40 && spinResult > 0 && spinResult < 13) {\r\n                payout += bets[i] * 3;\r\n            }\r\n            else if(placedBetsID[i] == 41 && spinResult > 12 && spinResult < 25) {\r\n                payout += bets[i] * 3;\r\n            }\r\n            else if(placedBetsID[i] == 42 && spinResult > 24) {\r\n                payout += bets[i] * 3;\r\n            }\r\n            // low or high numbers\r\n            else if(placedBetsID[i] == 43 && spinResult > 0 && spinResult < 19) {\r\n                payout += bets[i] * 2;\r\n            }\r\n            else if(placedBetsID[i] == 48 && spinResult > 18) {\r\n                payout += bets[i] * 2;\r\n            }\r\n            // odd or even numbers\r\n            else if(placedBetsID[i] == 44 && spinResult % 2 == 0) {\r\n               payout += bets[i] * 2;\r\n            }\r\n            else if(placedBetsID[i] == 47 && spinResult % 2 == 1) {\r\n                payout += bets[i] * 2;\r\n            }\r\n            // red\r\n            else if(placedBetsID[i] == 45 && false) {\r\n                payout += bets[i] * 2;\r\n            }\r\n            // black\r\n            else if(placedBetsID[i] == 46 && false) {\r\n                payout += bets[i] * 2;\r\n            }\r\n        }\r\n        return payout;\r\n    }\r\n}",
  "sourcePath": "C:/Users/sena/Documents/PmfSmartContracts/app/contracts/CryptoRoulette.sol",
  "compiler": {
    "name": "solc",
    "version": "0.5.0+commit.1d4f565a.Emscripten.clang"
  },
  "schemaVersion": "3.0.8",
  "updatedAt": "2019-05-13T18:06:08.953Z",
  "devdoc": {
    "methods": {}
  },
  "userdoc": {
    "methods": {}
  }
}