{
  "contractName": "Lottery",
  "abi": [
    {
      "inputs": [],
      "payable": false,
      "stateMutability": "nonpayable",
      "type": "constructor"
    },
    {
      "constant": true,
      "inputs": [],
      "name": "getTest",
      "outputs": [
        {
          "name": "",
          "type": "uint256"
        }
      ],
      "payable": false,
      "stateMutability": "view",
      "type": "function"
    },
    {
      "constant": false,
      "inputs": [],
      "name": "random",
      "outputs": [
        {
          "name": "",
          "type": "uint256"
        }
      ],
      "payable": false,
      "stateMutability": "nonpayable",
      "type": "function"
    }
  ],
  "bytecode": "0x608060405234801561001057600080fd5b50610028610033640100000000026401000000009004565b600081905550610090565b60006001430340600054426040516020018084815260200183815260200182815260200193505050506040516020818303038152906040528051906020012060019004600081905550600a60005481151561008a57fe5b06905090565b6101398061009f6000396000f3fe60806040526004361061004c576000357c0100000000000000000000000000000000000000000000000000000000900463ffffffff1680635ec01e4d14610051578063a8cd0a801461007c575b600080fd5b34801561005d57600080fd5b506100666100a7565b6040518082815260200191505060405180910390f35b34801561008857600080fd5b50610091610104565b6040518082815260200191505060405180910390f35b60006001430340600054426040516020018084815260200183815260200182815260200193505050506040516020818303038152906040528051906020012060019004600081905550600a6000548115156100fe57fe5b06905090565b6000805490509056fea165627a7a7230582084b9894343f59a10c909f22daf2504c04c1608b7a22a12d8b055aae6884216170029",
  "source": "pragma solidity ^0.5.0;\r\n\r\ncontract Lottery {\r\n    struct Ticket {\r\n        address _owner;\r\n        uint256[] _nummbersSelected;\r\n    }\r\n\r\n    uint256 private _randomNumber;\r\n    // Ticket[] private _tickets;\r\n\r\n    constructor() public {\r\n        _randomNumber = random();\r\n    }\r\n\r\n    function getTest() public view returns(uint256) {\r\n        return _randomNumber;\r\n    }\r\n\r\n    function random() public returns (uint256) {\r\n        _randomNumber = uint256(keccak256(abi.encodePacked(blockhash(block.number - 1), _randomNumber, now)));\r\n        return _randomNumber % 10; /* max vrijednost koja moze bit */\r\n    }\r\n}",
  "sourcePath": "C:/Users/luka.senicic/Documents/PmfSmartContracts/smart/app/contracts/Lottery.sol",
  "compiler": {
    "name": "solc",
    "version": "0.5.0+commit.1d4f565a.Emscripten.clang"
  },
  "schemaVersion": "3.0.6",
  "updatedAt": "2019-04-30T11:41:58.592Z",
  "devdoc": {
    "methods": {}
  },
  "userdoc": {
    "methods": {}
  }
}