{
  "contractName": "TestContract",
  "abi": [
    {
      "inputs": [],
      "payable": false,
      "stateMutability": "nonpayable",
      "type": "constructor"
    },
    {
      "constant": false,
      "inputs": [
        {
          "name": "t",
          "type": "uint256"
        }
      ],
      "name": "setTest",
      "outputs": [],
      "payable": false,
      "stateMutability": "nonpayable",
      "type": "function"
    },
    {
      "constant": true,
      "inputs": [],
      "name": "getTest",
      "outputs": [
        {
          "name": "",
          "type": "uint256"
        }
      ],
      "payable": false,
      "stateMutability": "view",
      "type": "function"
    },
    {
      "constant": true,
      "inputs": [],
      "name": "getSender",
      "outputs": [
        {
          "name": "",
          "type": "address"
        }
      ],
      "payable": false,
      "stateMutability": "view",
      "type": "function"
    }
  ],
  "bytecode": "0x608060405234801561001057600080fd5b50600080819055506101c3806100276000396000f3fe608060405260043610610057576000357c0100000000000000000000000000000000000000000000000000000000900463ffffffff1680635e01eb5a1461005c5780636ca1f933146100b3578063a8cd0a80146100ee575b600080fd5b34801561006857600080fd5b50610071610119565b604051808273ffffffffffffffffffffffffffffffffffffffff1673ffffffffffffffffffffffffffffffffffffffff16815260200191505060405180910390f35b3480156100bf57600080fd5b506100ec600480360360208110156100d657600080fd5b8101908080359060200190929190505050610143565b005b3480156100fa57600080fd5b5061010361018e565b6040518082815260200191505060405180910390f35b6000600160009054906101000a900473ffffffffffffffffffffffffffffffffffffffff16905090565b8060008190555033600160006101000a81548173ffffffffffffffffffffffffffffffffffffffff021916908373ffffffffffffffffffffffffffffffffffffffff16021790555050565b6000805490509056fea165627a7a7230582045d594197bb4a2e1651c54f66c359e560fbc81f287d20e3b5ceea0cbc0dd3f080029",
  "source": "pragma solidity ^0.5.0;\r\n\r\ncontract TestContract {\r\n    uint private test;\r\n    address private sender;\r\n\r\n    constructor() public {\r\n        test = 0;\r\n    }\r\n\r\n    function setTest(uint t) public {\r\n        test = t;\r\n        sender = msg.sender;\r\n    }  \r\n\r\n    function getTest() public view returns(uint) {\r\n        return test;\r\n    }\r\n\r\n    function getSender() public view returns(address) {\r\n        return sender;\r\n    }\r\n}",
  "sourcePath": "C:/Users/luka.senicic/Documents/PmfSmartContracts/smart/app/contracts/TestContract.sol",
  "compiler": {
    "name": "solc",
    "version": "0.5.0+commit.1d4f565a.Emscripten.clang"
  },
  "schemaVersion": "3.0.6",
  "updatedAt": "2019-04-30T11:41:58.589Z",
  "devdoc": {
    "methods": {}
  },
  "userdoc": {
    "methods": {}
  }
}